{
  "contractName": "Invest",
  "abi": [
    {
      "anonymous": false,
      "inputs": [
        {
          "indexed": true,
          "internalType": "address",
          "name": "owner",
          "type": "address"
        },
        {
          "indexed": true,
          "internalType": "address",
          "name": "spender",
          "type": "address"
        },
        {
          "indexed": false,
          "internalType": "uint256",
          "name": "value",
          "type": "uint256"
        }
      ],
      "name": "Approval",
      "type": "event"
    },
    {
      "anonymous": false,
      "inputs": [
        {
          "indexed": false,
          "internalType": "address",
          "name": "from",
          "type": "address"
        },
        {
          "indexed": false,
          "internalType": "uint256",
          "name": "_amount",
          "type": "uint256"
        }
      ],
      "name": "Burn",
      "type": "event"
    },
    {
      "anonymous": false,
      "inputs": [
        {
          "indexed": false,
          "internalType": "uint256",
          "name": "_balance",
          "type": "uint256"
        },
        {
          "indexed": false,
          "internalType": "uint256",
          "name": "_amount",
          "type": "uint256"
        },
        {
          "indexed": false,
          "internalType": "address",
          "name": "_contractAddress",
          "type": "address"
        }
      ],
      "name": "LiquidityAdded",
      "type": "event"
    },
    {
      "anonymous": false,
      "inputs": [
        {
          "indexed": true,
          "internalType": "address",
          "name": "from",
          "type": "address"
        },
        {
          "indexed": true,
          "internalType": "address",
          "name": "to",
          "type": "address"
        },
        {
          "indexed": false,
          "internalType": "uint256",
          "name": "_value",
          "type": "uint256"
        },
        {
          "indexed": false,
          "internalType": "uint256",
          "name": "balance",
          "type": "uint256"
        }
      ],
      "name": "Transfer",
      "type": "event"
    },
    {
      "inputs": [
        {
          "internalType": "address",
          "name": "",
          "type": "address"
        }
      ],
      "name": "Investors",
      "outputs": [
        {
          "internalType": "uint256",
          "name": "lendingDate",
          "type": "uint256"
        },
        {
          "internalType": "uint256",
          "name": "duration",
          "type": "uint256"
        },
        {
          "internalType": "uint256",
          "name": "amount",
          "type": "uint256"
        }
      ],
      "stateMutability": "view",
      "type": "function",
      "constant": true
    },
    {
      "inputs": [
        {
          "internalType": "address",
          "name": "",
          "type": "address"
        },
        {
          "internalType": "address",
          "name": "",
          "type": "address"
        }
      ],
      "name": "allowance",
      "outputs": [
        {
          "internalType": "uint256",
          "name": "",
          "type": "uint256"
        }
      ],
      "stateMutability": "view",
      "type": "function",
      "constant": true
    },
    {
      "inputs": [
        {
          "internalType": "address",
          "name": "_spender",
          "type": "address"
        },
        {
          "internalType": "uint256",
          "name": "_value",
          "type": "uint256"
        }
      ],
      "name": "approve",
      "outputs": [
        {
          "internalType": "bool",
          "name": "success",
          "type": "bool"
        }
      ],
      "stateMutability": "nonpayable",
      "type": "function"
    },
    {
      "inputs": [
        {
          "internalType": "address",
          "name": "",
          "type": "address"
        }
      ],
      "name": "balanceOf",
      "outputs": [
        {
          "internalType": "uint256",
          "name": "",
          "type": "uint256"
        }
      ],
      "stateMutability": "view",
      "type": "function",
      "constant": true
    },
    {
      "inputs": [
        {
          "internalType": "address",
          "name": "_user",
          "type": "address"
        },
        {
          "internalType": "uint256",
          "name": "_amount",
          "type": "uint256"
        }
      ],
      "name": "burnToken",
      "outputs": [],
      "stateMutability": "nonpayable",
      "type": "function"
    },
    {
      "inputs": [],
      "name": "decimals",
      "outputs": [
        {
          "internalType": "uint256",
          "name": "",
          "type": "uint256"
        }
      ],
      "stateMutability": "view",
      "type": "function",
      "constant": true
    },
    {
      "inputs": [],
      "name": "liquidityContract",
      "outputs": [
        {
          "internalType": "address",
          "name": "",
          "type": "address"
        }
      ],
      "stateMutability": "view",
      "type": "function",
      "constant": true
    },
    {
      "inputs": [
        {
          "internalType": "address",
          "name": "",
          "type": "address"
        }
      ],
      "name": "liquidityInvestmentBalance",
      "outputs": [
        {
          "internalType": "uint256",
          "name": "",
          "type": "uint256"
        }
      ],
      "stateMutability": "view",
      "type": "function",
      "constant": true
    },
    {
      "inputs": [],
      "name": "name",
      "outputs": [
        {
          "internalType": "string",
          "name": "",
          "type": "string"
        }
      ],
      "stateMutability": "view",
      "type": "function",
      "constant": true
    },
    {
      "inputs": [],
      "name": "owner",
      "outputs": [
        {
          "internalType": "address",
          "name": "",
          "type": "address"
        }
      ],
      "stateMutability": "view",
      "type": "function",
      "constant": true
    },
    {
      "inputs": [
        {
          "internalType": "address",
          "name": "_user",
          "type": "address"
        }
      ],
      "name": "stackedInvestmentLiquidity",
      "outputs": [
        {
          "internalType": "uint256",
          "name": "",
          "type": "uint256"
        }
      ],
      "stateMutability": "view",
      "type": "function",
      "constant": true
    },
    {
      "inputs": [
        {
          "internalType": "address",
          "name": "_user",
          "type": "address"
        }
      ],
      "name": "stackedTokenLiquidity",
      "outputs": [
        {
          "internalType": "uint256",
          "name": "",
          "type": "uint256"
        }
      ],
      "stateMutability": "view",
      "type": "function",
      "constant": true
    },
    {
      "inputs": [
        {
          "internalType": "address",
          "name": "",
          "type": "address"
        }
      ],
      "name": "stakedInvestmentBalance",
      "outputs": [
        {
          "internalType": "uint256",
          "name": "",
          "type": "uint256"
        }
      ],
      "stateMutability": "view",
      "type": "function",
      "constant": true
    },
    {
      "inputs": [
        {
          "internalType": "address",
          "name": "",
          "type": "address"
        }
      ],
      "name": "stakedTokenBalance",
      "outputs": [
        {
          "internalType": "uint256",
          "name": "",
          "type": "uint256"
        }
      ],
      "stateMutability": "view",
      "type": "function",
      "constant": true
    },
    {
      "inputs": [],
      "name": "symbol",
      "outputs": [
        {
          "internalType": "string",
          "name": "",
          "type": "string"
        }
      ],
      "stateMutability": "view",
      "type": "function",
      "constant": true
    },
    {
      "inputs": [],
      "name": "totalLiquidity",
      "outputs": [
        {
          "internalType": "uint256",
          "name": "",
          "type": "uint256"
        }
      ],
      "stateMutability": "view",
      "type": "function",
      "constant": true
    },
    {
      "inputs": [],
      "name": "totalSupply",
      "outputs": [
        {
          "internalType": "uint256",
          "name": "",
          "type": "uint256"
        }
      ],
      "stateMutability": "view",
      "type": "function",
      "constant": true
    },
    {
      "inputs": [
        {
          "internalType": "address",
          "name": "_to",
          "type": "address"
        },
        {
          "internalType": "uint256",
          "name": "_value",
          "type": "uint256"
        }
      ],
      "name": "transfer",
      "outputs": [
        {
          "internalType": "bool",
          "name": "success",
          "type": "bool"
        }
      ],
      "stateMutability": "nonpayable",
      "type": "function"
    },
    {
      "inputs": [
        {
          "internalType": "address",
          "name": "_from",
          "type": "address"
        },
        {
          "internalType": "address",
          "name": "_to",
          "type": "address"
        },
        {
          "internalType": "uint256",
          "name": "_value",
          "type": "uint256"
        }
      ],
      "name": "transferFrom",
      "outputs": [
        {
          "internalType": "bool",
          "name": "success",
          "type": "bool"
        }
      ],
      "stateMutability": "nonpayable",
      "type": "function"
    },
    {
      "inputs": [
        {
          "internalType": "address",
          "name": "_to",
          "type": "address"
        },
        {
          "internalType": "uint256",
          "name": "_value",
          "type": "uint256"
        }
      ],
      "name": "transferTokenToInvestor",
      "outputs": [
        {
          "internalType": "bool",
          "name": "success",
          "type": "bool"
        }
      ],
      "stateMutability": "nonpayable",
      "type": "function"
    },
    {
      "inputs": [
        {
          "internalType": "uint256",
          "name": "_amount",
          "type": "uint256"
        }
      ],
      "name": "investInMPay",
      "outputs": [],
      "stateMutability": "nonpayable",
      "type": "function"
    },
    {
      "inputs": [],
      "name": "cancelInvestment",
      "outputs": [],
      "stateMutability": "nonpayable",
      "type": "function"
    },
    {
      "inputs": [],
      "name": "stakeInvestment",
      "outputs": [],
      "stateMutability": "nonpayable",
      "type": "function"
    }
  ],
  "bytecode": "0x60806040526040518060400160405280600d81526020017f4d696e6470617920546f6b656e0000000000000000000000000000000000000081525060009080519060200190620000519291906200020b565b506040518060400160405280600781526020017f4d494e4450415900000000000000000000000000000000000000000000000000815250600190805190602001906200009f9291906200020b565b50601260025530600760006101000a81548173ffffffffffffffffffffffffffffffffffffffff021916908373ffffffffffffffffffffffffffffffffffffffff16021790555030600c60006101000a81548173ffffffffffffffffffffffffffffffffffffffff021916908373ffffffffffffffffffffffffffffffffffffffff1602179055503480156200013457600080fd5b5033600460006101000a81548173ffffffffffffffffffffffffffffffffffffffff021916908373ffffffffffffffffffffffffffffffffffffffff160217905550600254600a62000187919062000316565b620f424062000197919062000453565b60038190555060035460056000600460009054906101000a900473ffffffffffffffffffffffffffffffffffffffff1673ffffffffffffffffffffffffffffffffffffffff1673ffffffffffffffffffffffffffffffffffffffff168152602001908152602001600020819055506200055f565b8280546200021990620004be565b90600052602060002090601f0160209004810192826200023d576000855562000289565b82601f106200025857805160ff191683800117855562000289565b8280016001018555821562000289579182015b82811115620002885782518255916020019190600101906200026b565b5b5090506200029891906200029c565b5090565b5b80821115620002b75760008160009055506001016200029d565b5090565b6000808291508390505b60018511156200030d57808604811115620002e557620002e4620004f4565b5b6001851615620002f55780820291505b8081029050620003058562000552565b9450620002c5565b94509492505050565b60006200032382620004b4565b91506200033083620004b4565b92506200035f7fffffffffffffffffffffffffffffffffffffffffffffffffffffffffffffffff848462000367565b905092915050565b6000826200037957600190506200044c565b816200038957600090506200044c565b8160018114620003a25760028114620003ad57620003e3565b60019150506200044c565b60ff841115620003c257620003c1620004f4565b5b8360020a915084821115620003dc57620003db620004f4565b5b506200044c565b5060208310610133831016604e8410600b84101617156200041d5782820a905083811115620004175762000416620004f4565b5b6200044c565b6200042c8484846001620002bb565b92509050818404811115620004465762000445620004f4565b5b81810290505b9392505050565b60006200046082620004b4565b91506200046d83620004b4565b9250817fffffffffffffffffffffffffffffffffffffffffffffffffffffffffffffffff0483118215151615620004a957620004a8620004f4565b5b828202905092915050565b6000819050919050565b60006002820490506001821680620004d757607f821691505b60208210811415620004ee57620004ed62000523565b5b50919050565b7f4e487b7100000000000000000000000000000000000000000000000000000000600052601160045260246000fd5b7f4e487b7100000000000000000000000000000000000000000000000000000000600052602260045260246000fd5b60008160011c9050919050565b612047806200056f6000396000f3fe608060405234801561001057600080fd5b506004361061014d5760003560e01c80637f737a75116100c3578063d1df306c1161007c578063d1df306c146103ca578063dd1992a7146103e6578063dd62ed3e14610402578063e54845b614610432578063e8930efd14610450578063ea1962d6146104825761014d565b80637f737a75146102f45780638da5cb5b1461032457806391963e151461034257806394f8e9541461037257806395d89b411461037c578063a9059cbb1461039a5761014d565b806318160ddd1161011557806318160ddd146101f857806323b872dd14610216578063251a52f814610246578063313ce5671461027657806370a082311461029457806373d5e001146102c45761014d565b80630114acee1461015257806306fdde0314610182578063095ea7b3146101a05780630ab1e603146101d057806315770f92146101da575b600080fd5b61016c6004803603810190610167919061176f565b6104b2565b6040516101799190611b01565b60405180910390f35b61018a6104fb565b6040516101979190611a1f565b60405180910390f35b6101ba60048036038101906101b59190611823565b610589565b6040516101c79190611a04565b60405180910390f35b6101d86106b4565b005b6101e2610846565b6040516101ef9190611b01565b60405180910390f35b61020061088d565b60405161020d9190611b01565b60405180910390f35b610230600480360381019061022b91906117d4565b610893565b60405161023d9190611a04565b60405180910390f35b610260600480360381019061025b9190611823565b610a88565b60405161026d9190611a04565b60405180910390f35b61027e610b2f565b60405161028b9190611b01565b60405180910390f35b6102ae60048036038101906102a9919061176f565b610b35565b6040516102bb9190611b01565b60405180910390f35b6102de60048036038101906102d9919061176f565b610b4d565b6040516102eb9190611b01565b60405180910390f35b61030e6004803603810190610309919061176f565b610b65565b60405161031b9190611b01565b60405180910390f35b61032c610b7d565b60405161033991906119c0565b60405180910390f35b61035c6004803603810190610357919061176f565b610ba3565b6040516103699190611b01565b60405180910390f35b61037a610bec565b005b610384610df5565b6040516103919190611a1f565b60405180910390f35b6103b460048036038101906103af9190611823565b610e83565b6040516103c19190611a04565b60405180910390f35b6103e460048036038101906103df9190611823565b610ee6565b005b61040060048036038101906103fb919061185f565b61103f565b005b61041c60048036038101906104179190611798565b61129a565b6040516104299190611b01565b60405180910390f35b61043a6112bf565b60405161044791906119c0565b60405180910390f35b61046a6004803603810190610465919061176f565b6112e5565b60405161047993929190611b7c565b60405180910390f35b61049c6004803603810190610497919061176f565b61130f565b6040516104a99190611b01565b60405180910390f35b6000600a60008373ffffffffffffffffffffffffffffffffffffffff1673ffffffffffffffffffffffffffffffffffffffff168152602001908152602001600020549050919050565b6000805461050890611d5f565b80601f016020809104026020016040519081016040528092919081815260200182805461053490611d5f565b80156105815780601f1061055657610100808354040283529160200191610581565b820191906000526020600020905b81548152906001019060200180831161056457829003601f168201915b505050505081565b60008073ffffffffffffffffffffffffffffffffffffffff168373ffffffffffffffffffffffffffffffffffffffff1614156105c457600080fd5b81600660003373ffffffffffffffffffffffffffffffffffffffff1673ffffffffffffffffffffffffffffffffffffffff16815260200190815260200160002060008573ffffffffffffffffffffffffffffffffffffffff1673ffffffffffffffffffffffffffffffffffffffff168152602001908152602001600020819055508273ffffffffffffffffffffffffffffffffffffffff163373ffffffffffffffffffffffffffffffffffffffff167f8c5be1e5ebec7d5bd14f71427d1e84f3dd0314c0f7b2291e5b200ac8c7c3b925846040516106a29190611b01565b60405180910390a36001905092915050565b42600b60003373ffffffffffffffffffffffffffffffffffffffff1673ffffffffffffffffffffffffffffffffffffffff1681526020019081526020016000206001015410610738576040517f08c379a000000000000000000000000000000000000000000000000000000000815260040161072f90611a41565b60405180910390fd5b6000600560003373ffffffffffffffffffffffffffffffffffffffff1673ffffffffffffffffffffffffffffffffffffffff16815260200190815260200160002054905060006064605a600b60003373ffffffffffffffffffffffffffffffffffffffff1673ffffffffffffffffffffffffffffffffffffffff168152602001908152602001600020600201546107cf9190611c56565b6107d99190611c25565b9050600081600b60003373ffffffffffffffffffffffffffffffffffffffff1673ffffffffffffffffffffffffffffffffffffffff1681526020019081526020016000206002015461082b9190611cb0565b905061083681611327565b61084133848461143d565b505050565b6000600860003073ffffffffffffffffffffffffffffffffffffffff1673ffffffffffffffffffffffffffffffffffffffff16815260200190815260200160002054905090565b60035481565b6000600560008573ffffffffffffffffffffffffffffffffffffffff1673ffffffffffffffffffffffffffffffffffffffff168152602001908152602001600020548211156108e157600080fd5b600660008573ffffffffffffffffffffffffffffffffffffffff1673ffffffffffffffffffffffffffffffffffffffff16815260200190815260200160002060003373ffffffffffffffffffffffffffffffffffffffff1673ffffffffffffffffffffffffffffffffffffffff1681526020019081526020016000205482111561096a57600080fd5b81600660008673ffffffffffffffffffffffffffffffffffffffff1673ffffffffffffffffffffffffffffffffffffffff16815260200190815260200160002060003373ffffffffffffffffffffffffffffffffffffffff1673ffffffffffffffffffffffffffffffffffffffff168152602001908152602001600020546109f29190611cb0565b600660008673ffffffffffffffffffffffffffffffffffffffff1673ffffffffffffffffffffffffffffffffffffffff16815260200190815260200160002060003373ffffffffffffffffffffffffffffffffffffffff1673ffffffffffffffffffffffffffffffffffffffff16815260200190815260200160002081905550610a7d8484846115b4565b600190509392505050565b60008160056000600460009054906101000a900473ffffffffffffffffffffffffffffffffffffffff1673ffffffffffffffffffffffffffffffffffffffff1673ffffffffffffffffffffffffffffffffffffffff168152602001908152602001600020541015610af857600080fd5b610b25600460009054906101000a900473ffffffffffffffffffffffffffffffffffffffff1684846115b4565b6001905092915050565b60025481565b60056020528060005260406000206000915090505481565b60096020528060005260406000206000915090505481565b600a6020528060005260406000206000915090505481565b600460009054906101000a900473ffffffffffffffffffffffffffffffffffffffff1681565b6000600960008373ffffffffffffffffffffffffffffffffffffffff1673ffffffffffffffffffffffffffffffffffffffff168152602001908152602001600020549050919050565b42600b60003373ffffffffffffffffffffffffffffffffffffffff1673ffffffffffffffffffffffffffffffffffffffff1681526020019081526020016000206001015410610c70576040517f08c379a0000000000000000000000000000000000000000000000000000000008152600401610c6790611a41565b60405180910390fd5b60006064605a600b60003373ffffffffffffffffffffffffffffffffffffffff1673ffffffffffffffffffffffffffffffffffffffff16815260200190815260200160002060020154610cc39190611c56565b610ccd9190611c25565b9050600081600b60003373ffffffffffffffffffffffffffffffffffffffff1673ffffffffffffffffffffffffffffffffffffffff16815260200190815260200160002060020154610d1f9190611cb0565b9050610d2a81611327565b610d7333600560003373ffffffffffffffffffffffffffffffffffffffff1673ffffffffffffffffffffffffffffffffffffffff16815260200190815260200160002054610ee6565b604051806060016040528060008152602001600081526020016000815250600b60003373ffffffffffffffffffffffffffffffffffffffff1673ffffffffffffffffffffffffffffffffffffffff1681526020019081526020016000206000820151816000015560208201518160010155604082015181600201559050505050565b60018054610e0290611d5f565b80601f0160208091040260200160405190810160405280929190818152602001828054610e2e90611d5f565b8015610e7b5780601f10610e5057610100808354040283529160200191610e7b565b820191906000526020600020905b815481529060010190602001808311610e5e57829003601f168201915b505050505081565b600081600560003373ffffffffffffffffffffffffffffffffffffffff1673ffffffffffffffffffffffffffffffffffffffff168152602001908152602001600020541015610ed157600080fd5b610edc3384846115b4565b6001905092915050565b600073ffffffffffffffffffffffffffffffffffffffff168273ffffffffffffffffffffffffffffffffffffffff161415610f56576040517f08c379a0000000000000000000000000000000000000000000000000000000008152600401610f4d90611aa1565b60405180910390fd5b80600560008473ffffffffffffffffffffffffffffffffffffffff1673ffffffffffffffffffffffffffffffffffffffff1681526020019081526020016000206000828254610fa59190611cb0565b9250508190555080600560008073ffffffffffffffffffffffffffffffffffffffff1673ffffffffffffffffffffffffffffffffffffffff1681526020019081526020016000206000828254610ffb9190611bcf565b925050819055507fcc16f5dbb4873280815c1ee09dbd06736cffcc184412cf7a71a0fdb75d397ca582826040516110339291906119db565b60405180910390a15050565b80600073ffffffffffffffffffffffffffffffffffffffff163373ffffffffffffffffffffffffffffffffffffffff1614156110b0576040517f08c379a00000000000000000000000000000000000000000000000000000000081526004016110a790611ae1565b60405180910390fd5b600081116110f3576040517f08c379a00000000000000000000000000000000000000000000000000000000081526004016110ea90611ac1565b60405180910390fd5b6040518060600160405280428152602001610384426111129190611bcf565b815260200183815250600b60003373ffffffffffffffffffffffffffffffffffffffff1673ffffffffffffffffffffffffffffffffffffffff168152602001908152602001600020600082015181600001556020820151816001015560408201518160020155905050674563918244f400008211156111f2576111ec336103e86014670de0b6b3a7640000866111a89190611c25565b6111b29190611c25565b6111bc9190611c56565b6103e8670de0b6b3a7640000866111d39190611c25565b6111dd9190611c56565b6111e79190611bcf565b610a88565b50611296565b670de0b6b3a764000082111561126957611263336103e8600a670de0b6b3a76400008661121f9190611c25565b6112299190611c25565b6112339190611c56565b6103e8670de0b6b3a76400008661124a9190611c25565b6112549190611c56565b61125e9190611bcf565b610a88565b50611295565b611293336103e8670de0b6b3a7640000856112849190611c25565b61128e9190611c56565b610a88565b505b5b5050565b6006602052816000526040600020602052806000526040600020600091509150505481565b600760009054906101000a900473ffffffffffffffffffffffffffffffffffffffff1681565b600b6020528060005260406000206000915090508060000154908060010154908060020154905083565b60086020528060005260406000206000915090505481565b6000811161136a576040517f08c379a000000000000000000000000000000000000000000000000000000000815260040161136190611a81565b60405180910390fd5b80600860003073ffffffffffffffffffffffffffffffffffffffff1673ffffffffffffffffffffffffffffffffffffffff16815260200190815260200160002060008282546113b99190611bcf565b925050819055507f0351f600ef1e31e5e13b4dc27bff4cbde3e9269f0ffc666629ae6cac573eb220600860003073ffffffffffffffffffffffffffffffffffffffff1673ffffffffffffffffffffffffffffffffffffffff16815260200190815260200160002054823060405161143293929190611b45565b60405180910390a150565b82828260008211611483576040517f08c379a000000000000000000000000000000000000000000000000000000000815260040161147a90611a61565b60405180910390fd5b600081116114c6576040517f08c379a00000000000000000000000000000000000000000000000000000000081526004016114bd90611a81565b60405180910390fd5b600073ffffffffffffffffffffffffffffffffffffffff168373ffffffffffffffffffffffffffffffffffffffff16141561150057600080fd5b83600960008873ffffffffffffffffffffffffffffffffffffffff1673ffffffffffffffffffffffffffffffffffffffff168152602001908152602001600020600082825461154f9190611bcf565b9250508190555084600a60008873ffffffffffffffffffffffffffffffffffffffff1673ffffffffffffffffffffffffffffffffffffffff16815260200190815260200160002060008282546115a59190611bcf565b92505081905550505050505050565b600073ffffffffffffffffffffffffffffffffffffffff168273ffffffffffffffffffffffffffffffffffffffff1614156115ee57600080fd5b80600560008573ffffffffffffffffffffffffffffffffffffffff1673ffffffffffffffffffffffffffffffffffffffff168152602001908152602001600020600082825461163d9190611cb0565b9250508190555080600560008473ffffffffffffffffffffffffffffffffffffffff1673ffffffffffffffffffffffffffffffffffffffff16815260200190815260200160002060008282546116939190611bcf565b925050819055508173ffffffffffffffffffffffffffffffffffffffff168373ffffffffffffffffffffffffffffffffffffffff167f9ed053bb818ff08b8353cd46f78db1f0799f31c9e4458fdb425c10eccd2efc4483600560008773ffffffffffffffffffffffffffffffffffffffff1673ffffffffffffffffffffffffffffffffffffffff16815260200190815260200160002054604051611738929190611b1c565b60405180910390a3505050565b60008135905061175481611fe3565b92915050565b60008135905061176981611ffa565b92915050565b60006020828403121561178157600080fd5b600061178f84828501611745565b91505092915050565b600080604083850312156117ab57600080fd5b60006117b985828601611745565b92505060206117ca85828601611745565b9150509250929050565b6000806000606084860312156117e957600080fd5b60006117f786828701611745565b935050602061180886828701611745565b92505060406118198682870161175a565b9150509250925092565b6000806040838503121561183657600080fd5b600061184485828601611745565b92505060206118558582860161175a565b9150509250929050565b60006020828403121561187157600080fd5b600061187f8482850161175a565b91505092915050565b61189181611ce4565b82525050565b6118a081611cf6565b82525050565b60006118b182611bb3565b6118bb8185611bbe565b93506118cb818560208601611d2c565b6118d481611e1e565b840191505092915050565b60006118ec602583611bbe565b91506118f782611e2f565b604082019050919050565b600061190f602383611bbe565b915061191a82611e7e565b604082019050919050565b6000611932602883611bbe565b915061193d82611ecd565b604082019050919050565b6000611955602183611bbe565b915061196082611f1c565b604082019050919050565b6000611978601f83611bbe565b915061198382611f6b565b602082019050919050565b600061199b603c83611bbe565b91506119a682611f94565b604082019050919050565b6119ba81611d22565b82525050565b60006020820190506119d56000830184611888565b92915050565b60006040820190506119f06000830185611888565b6119fd60208301846119b1565b9392505050565b6000602082019050611a196000830184611897565b92915050565b60006020820190508181036000830152611a3981846118a6565b905092915050565b60006020820190508181036000830152611a5a816118df565b9050919050565b60006020820190508181036000830152611a7a81611902565b9050919050565b60006020820190508181036000830152611a9a81611925565b9050919050565b60006020820190508181036000830152611aba81611948565b9050919050565b60006020820190508181036000830152611ada8161196b565b9050919050565b60006020820190508181036000830152611afa8161198e565b9050919050565b6000602082019050611b1660008301846119b1565b92915050565b6000604082019050611b3160008301856119b1565b611b3e60208301846119b1565b9392505050565b6000606082019050611b5a60008301866119b1565b611b6760208301856119b1565b611b746040830184611888565b949350505050565b6000606082019050611b9160008301866119b1565b611b9e60208301856119b1565b611bab60408301846119b1565b949350505050565b600081519050919050565b600082825260208201905092915050565b6000611bda82611d22565b9150611be583611d22565b9250827fffffffffffffffffffffffffffffffffffffffffffffffffffffffffffffffff03821115611c1a57611c19611d91565b5b828201905092915050565b6000611c3082611d22565b9150611c3b83611d22565b925082611c4b57611c4a611dc0565b5b828204905092915050565b6000611c6182611d22565b9150611c6c83611d22565b9250817fffffffffffffffffffffffffffffffffffffffffffffffffffffffffffffffff0483118215151615611ca557611ca4611d91565b5b828202905092915050565b6000611cbb82611d22565b9150611cc683611d22565b925082821015611cd957611cd8611d91565b5b828203905092915050565b6000611cef82611d02565b9050919050565b60008115159050919050565b600073ffffffffffffffffffffffffffffffffffffffff82169050919050565b6000819050919050565b60005b83811015611d4a578082015181840152602081019050611d2f565b83811115611d59576000848401525b50505050565b60006002820490506001821680611d7757607f821691505b60208210811415611d8b57611d8a611def565b5b50919050565b7f4e487b7100000000000000000000000000000000000000000000000000000000600052601160045260246000fd5b7f4e487b7100000000000000000000000000000000000000000000000000000000600052601260045260246000fd5b7f4e487b7100000000000000000000000000000000000000000000000000000000600052602260045260246000fd5b6000601f19601f8301169050919050565b7f7374616b696e67206475726174696f6e206973206e6f7420636f6d706c65746560008201527f6420796574000000000000000000000000000000000000000000000000000000602082015250565b7f546f6b656e20616d6f756e74206d75737420626520677265617465722074686160008201527f6e20300000000000000000000000000000000000000000000000000000000000602082015250565b7f494e766573746d656e7420616d6f756e74206d7573742062652067726561746560008201527f72207468616e2030000000000000000000000000000000000000000000000000602082015250565b7f45524332303a206275726e2066726f6d20746865207a65726f2061646472657360008201527f7300000000000000000000000000000000000000000000000000000000000000602082015250565b7f506c6561736520496e76657374204d6f7265205468616e203020457468657200600082015250565b7f5a65726f204164647265737320456e636f756e74657265642e20506c6561736560008201527f20496e766573742046726f6d2056616c69642041646472657373212100000000602082015250565b611fec81611ce4565b8114611ff757600080fd5b50565b61200381611d22565b811461200e57600080fd5b5056fea26469706673582212203d48038dffde5ed2b8c002c24f3d2c04ae5f532a70feb42c97c1993dcb3f606064736f6c63430008040033",
  "immutableReferences": {},
  "source": "// SPDX-License-Identifier: UNLICENSED\r\n\r\npragma solidity ^0.8.4;\r\n\r\nimport \"./Token.sol\";\r\nimport \"./Liquidity.sol\";\r\n\r\ncontract Invest is Token, Liquidity {\r\n    // mapping (address => uint256) public investors;\r\n    struct investor {\r\n        uint lendingDate; \r\n        uint duration;\r\n        uint amount;\r\n    }\r\n\r\n    mapping(address => investor) public Investors;\r\n    address investmentContract = address(this);\r\n\r\n    modifier validateInvestor(uint256 _amount) {\r\n        require(msg.sender != address(0), \"Zero Address Encountered. Please Invest From Valid Address!!\");\r\n        require(_amount > 0, \"Please Invest More Than 0 Ether\");\r\n        _;\r\n    }\r\n\r\n    modifier checkTimestamp() {\r\n        require(Investors[msg.sender].duration < block.timestamp, \"staking duration is not completed yet\");\r\n        // require(Investors[msg.sender].amount == 0 ether, \"only stake holder can operate stake\");\r\n        _;\r\n    }\r\n\r\n    function investInMPay(uint256 _amount) public validateInvestor(_amount) {\r\n        Investors[msg.sender] = investor(block.timestamp, block.timestamp + 15 minutes, _amount);\r\n        if(_amount > 5 ether){\r\n            transferTokenToInvestor(msg.sender, ((_amount/ 1 ether) * 1000) + (((_amount/ 1 ether) / 20) * 1000));\r\n        } else if (_amount > 1 ether) {\r\n            transferTokenToInvestor(msg.sender, ((_amount/ 1 ether) * 1000) + (((_amount/ 1 ether) / 10) * 1000));\r\n        } else {\r\n            transferTokenToInvestor(msg.sender, (_amount/ 1 ether) * 1000);\r\n        }\r\n    }\r\n\r\n    function cancelInvestment() public checkTimestamp {\r\n        uint256 investmentAmount = (Investors[msg.sender].amount*90)/100;\r\n        // transfer(msg.sender,investmentAmount);\r\n        \r\n        uint256 stakeAmount = (Investors[msg.sender].amount - investmentAmount);\r\n        addLiquidity(stakeAmount);\r\n        burnToken(msg.sender, balanceOf[msg.sender]);\r\n        Investors[msg.sender] = investor(0,0,0);\r\n    }\r\n\r\n    function withdrawInvestment(uint256 _amount) internal {\r\n        require(address(this).balance >= _amount);\r\n        payable(msg.sender).transfer(_amount);\r\n    }\r\n\r\n    function stakeInvestment() public checkTimestamp {\r\n        uint256 tokenAmount = balanceOf[msg.sender];\r\n        uint256 investmentAmount = (Investors[msg.sender].amount*90)/100;\r\n        uint256 stakeAmount = (Investors[msg.sender].amount - investmentAmount);\r\n        addLiquidity(stakeAmount);\r\n        addStakingLiquidity(msg.sender, tokenAmount, investmentAmount);\r\n    }\r\n\r\n\r\n}",
  "sourcePath": "E:/Work/Minddef task/Token-and-staking-management/contracts/Invest.sol",
  "compiler": {
    "name": "solc",
    "version": "0.8.4+commit.c7e474f2.Emscripten.clang"
  },
  "schemaVersion": "3.2.3",
  "updatedAt": "2022-11-03T16:55:39.417Z",
  "networkType": "ethereum",
  "devdoc": {
    "kind": "dev",
    "methods": {},
    "version": 1
  },
  "userdoc": {
    "kind": "user",
    "methods": {},
    "version": 1
  }
}