{
  "contractName": "Liquidity",
  "abi": [
    {
      "anonymous": false,
      "inputs": [
        {
          "indexed": true,
          "internalType": "address",
          "name": "owner",
          "type": "address"
        },
        {
          "indexed": true,
          "internalType": "address",
          "name": "spender",
          "type": "address"
        },
        {
          "indexed": false,
          "internalType": "uint256",
          "name": "value",
          "type": "uint256"
        }
      ],
      "name": "Approval",
      "type": "event"
    },
    {
      "anonymous": false,
      "inputs": [
        {
          "indexed": false,
          "internalType": "address",
          "name": "from",
          "type": "address"
        },
        {
          "indexed": false,
          "internalType": "uint256",
          "name": "_amount",
          "type": "uint256"
        }
      ],
      "name": "Burn",
      "type": "event"
    },
    {
      "anonymous": false,
      "inputs": [
        {
          "indexed": false,
          "internalType": "uint256",
          "name": "_balance",
          "type": "uint256"
        },
        {
          "indexed": false,
          "internalType": "uint256",
          "name": "_amount",
          "type": "uint256"
        },
        {
          "indexed": false,
          "internalType": "address",
          "name": "_contractAddress",
          "type": "address"
        }
      ],
      "name": "LiquidityAdded",
      "type": "event"
    },
    {
      "anonymous": false,
      "inputs": [
        {
          "indexed": true,
          "internalType": "address",
          "name": "from",
          "type": "address"
        },
        {
          "indexed": true,
          "internalType": "address",
          "name": "to",
          "type": "address"
        },
        {
          "indexed": false,
          "internalType": "uint256",
          "name": "_value",
          "type": "uint256"
        },
        {
          "indexed": false,
          "internalType": "uint256",
          "name": "balance",
          "type": "uint256"
        }
      ],
      "name": "Transfer",
      "type": "event"
    },
    {
      "inputs": [
        {
          "internalType": "address",
          "name": "",
          "type": "address"
        },
        {
          "internalType": "address",
          "name": "",
          "type": "address"
        }
      ],
      "name": "allowance",
      "outputs": [
        {
          "internalType": "uint256",
          "name": "",
          "type": "uint256"
        }
      ],
      "stateMutability": "view",
      "type": "function",
      "constant": true
    },
    {
      "inputs": [
        {
          "internalType": "address",
          "name": "_spender",
          "type": "address"
        },
        {
          "internalType": "uint256",
          "name": "_value",
          "type": "uint256"
        }
      ],
      "name": "approve",
      "outputs": [
        {
          "internalType": "bool",
          "name": "success",
          "type": "bool"
        }
      ],
      "stateMutability": "nonpayable",
      "type": "function"
    },
    {
      "inputs": [
        {
          "internalType": "address",
          "name": "",
          "type": "address"
        }
      ],
      "name": "balanceOf",
      "outputs": [
        {
          "internalType": "uint256",
          "name": "",
          "type": "uint256"
        }
      ],
      "stateMutability": "view",
      "type": "function",
      "constant": true
    },
    {
      "inputs": [
        {
          "internalType": "address",
          "name": "_user",
          "type": "address"
        },
        {
          "internalType": "uint256",
          "name": "_amount",
          "type": "uint256"
        }
      ],
      "name": "burnToken",
      "outputs": [],
      "stateMutability": "nonpayable",
      "type": "function"
    },
    {
      "inputs": [],
      "name": "decimals",
      "outputs": [
        {
          "internalType": "uint256",
          "name": "",
          "type": "uint256"
        }
      ],
      "stateMutability": "view",
      "type": "function",
      "constant": true
    },
    {
      "inputs": [],
      "name": "liquidityContract",
      "outputs": [
        {
          "internalType": "address",
          "name": "",
          "type": "address"
        }
      ],
      "stateMutability": "view",
      "type": "function",
      "constant": true
    },
    {
      "inputs": [
        {
          "internalType": "address",
          "name": "",
          "type": "address"
        }
      ],
      "name": "liquidityInvestmentBalance",
      "outputs": [
        {
          "internalType": "uint256",
          "name": "",
          "type": "uint256"
        }
      ],
      "stateMutability": "view",
      "type": "function",
      "constant": true
    },
    {
      "inputs": [],
      "name": "name",
      "outputs": [
        {
          "internalType": "string",
          "name": "",
          "type": "string"
        }
      ],
      "stateMutability": "view",
      "type": "function",
      "constant": true
    },
    {
      "inputs": [],
      "name": "owner",
      "outputs": [
        {
          "internalType": "address",
          "name": "",
          "type": "address"
        }
      ],
      "stateMutability": "view",
      "type": "function",
      "constant": true
    },
    {
      "inputs": [
        {
          "internalType": "address",
          "name": "",
          "type": "address"
        }
      ],
      "name": "stakedInvestmentBalance",
      "outputs": [
        {
          "internalType": "uint256",
          "name": "",
          "type": "uint256"
        }
      ],
      "stateMutability": "view",
      "type": "function",
      "constant": true
    },
    {
      "inputs": [
        {
          "internalType": "address",
          "name": "",
          "type": "address"
        }
      ],
      "name": "stakedTokenBalance",
      "outputs": [
        {
          "internalType": "uint256",
          "name": "",
          "type": "uint256"
        }
      ],
      "stateMutability": "view",
      "type": "function",
      "constant": true
    },
    {
      "inputs": [],
      "name": "symbol",
      "outputs": [
        {
          "internalType": "string",
          "name": "",
          "type": "string"
        }
      ],
      "stateMutability": "view",
      "type": "function",
      "constant": true
    },
    {
      "inputs": [],
      "name": "totalSupply",
      "outputs": [
        {
          "internalType": "uint256",
          "name": "",
          "type": "uint256"
        }
      ],
      "stateMutability": "view",
      "type": "function",
      "constant": true
    },
    {
      "inputs": [
        {
          "internalType": "address",
          "name": "_to",
          "type": "address"
        },
        {
          "internalType": "uint256",
          "name": "_value",
          "type": "uint256"
        }
      ],
      "name": "transfer",
      "outputs": [
        {
          "internalType": "bool",
          "name": "success",
          "type": "bool"
        }
      ],
      "stateMutability": "nonpayable",
      "type": "function"
    },
    {
      "inputs": [
        {
          "internalType": "address",
          "name": "_from",
          "type": "address"
        },
        {
          "internalType": "address",
          "name": "_to",
          "type": "address"
        },
        {
          "internalType": "uint256",
          "name": "_value",
          "type": "uint256"
        }
      ],
      "name": "transferFrom",
      "outputs": [
        {
          "internalType": "bool",
          "name": "success",
          "type": "bool"
        }
      ],
      "stateMutability": "nonpayable",
      "type": "function"
    },
    {
      "inputs": [
        {
          "internalType": "address",
          "name": "_to",
          "type": "address"
        },
        {
          "internalType": "uint256",
          "name": "_value",
          "type": "uint256"
        }
      ],
      "name": "transferTokenToInvestor",
      "outputs": [
        {
          "internalType": "bool",
          "name": "success",
          "type": "bool"
        }
      ],
      "stateMutability": "nonpayable",
      "type": "function"
    },
    {
      "inputs": [],
      "name": "totalLiquidity",
      "outputs": [
        {
          "internalType": "uint256",
          "name": "",
          "type": "uint256"
        }
      ],
      "stateMutability": "view",
      "type": "function",
      "constant": true
    },
    {
      "inputs": [
        {
          "internalType": "address",
          "name": "_user",
          "type": "address"
        }
      ],
      "name": "stackedInvestmentLiquidity",
      "outputs": [
        {
          "internalType": "uint256",
          "name": "",
          "type": "uint256"
        }
      ],
      "stateMutability": "view",
      "type": "function",
      "constant": true
    },
    {
      "inputs": [
        {
          "internalType": "address",
          "name": "_user",
          "type": "address"
        }
      ],
      "name": "stackedTokenLiquidity",
      "outputs": [
        {
          "internalType": "uint256",
          "name": "",
          "type": "uint256"
        }
      ],
      "stateMutability": "view",
      "type": "function",
      "constant": true
    }
  ],
  "bytecode": "0x60806040526040518060400160405280600d81526020017f4d696e6470617920546f6b656e000000000000000000000000000000000000008152506000908051906020019062000051929190620001ca565b506040518060400160405280600781526020017f4d494e4450415900000000000000000000000000000000000000000000000000815250600190805190602001906200009f929190620001ca565b50601260025530600760006101000a81548173ffffffffffffffffffffffffffffffffffffffff021916908373ffffffffffffffffffffffffffffffffffffffff160217905550348015620000f357600080fd5b5033600460006101000a81548173ffffffffffffffffffffffffffffffffffffffff021916908373ffffffffffffffffffffffffffffffffffffffff160217905550600254600a620001469190620002d5565b620f424062000156919062000412565b60038190555060035460056000600460009054906101000a900473ffffffffffffffffffffffffffffffffffffffff1673ffffffffffffffffffffffffffffffffffffffff1673ffffffffffffffffffffffffffffffffffffffff168152602001908152602001600020819055506200051e565b828054620001d8906200047d565b90600052602060002090601f016020900481019282620001fc576000855562000248565b82601f106200021757805160ff191683800117855562000248565b8280016001018555821562000248579182015b82811115620002475782518255916020019190600101906200022a565b5b5090506200025791906200025b565b5090565b5b80821115620002765760008160009055506001016200025c565b5090565b6000808291508390505b6001851115620002cc57808604811115620002a457620002a3620004b3565b5b6001851615620002b45780820291505b8081029050620002c48562000511565b945062000284565b94509492505050565b6000620002e28262000473565b9150620002ef8362000473565b92506200031e7fffffffffffffffffffffffffffffffffffffffffffffffffffffffffffffffff848462000326565b905092915050565b6000826200033857600190506200040b565b816200034857600090506200040b565b81600181146200036157600281146200036c57620003a2565b60019150506200040b565b60ff841115620003815762000380620004b3565b5b8360020a9150848211156200039b576200039a620004b3565b5b506200040b565b5060208310610133831016604e8410600b8410161715620003dc5782820a905083811115620003d657620003d5620004b3565b5b6200040b565b620003eb84848460016200027a565b92509050818404811115620004055762000404620004b3565b5b81810290505b9392505050565b60006200041f8262000473565b91506200042c8362000473565b9250817fffffffffffffffffffffffffffffffffffffffffffffffffffffffffffffffff0483118215151615620004685762000467620004b3565b5b828202905092915050565b6000819050919050565b600060028204905060018216806200049657607f821691505b60208210811415620004ad57620004ac620004e2565b5b50919050565b7f4e487b7100000000000000000000000000000000000000000000000000000000600052601160045260246000fd5b7f4e487b7100000000000000000000000000000000000000000000000000000000600052602260045260246000fd5b60008160011c9050919050565b611307806200052e6000396000f3fe608060405234801561001057600080fd5b50600436106101215760003560e01c806373d5e001116100ad578063a9059cbb11610071578063a9059cbb1461035a578063d1df306c1461038a578063dd62ed3e146103a6578063e54845b6146103d6578063ea1962d6146103f457610121565b806373d5e0011461028e5780637f737a75146102be5780638da5cb5b146102ee57806391963e151461030c57806395d89b411461033c57610121565b806318160ddd116100f457806318160ddd146101c257806323b872dd146101e0578063251a52f814610210578063313ce5671461024057806370a082311461025e57610121565b80630114acee1461012657806306fdde0314610156578063095ea7b31461017457806315770f92146101a4575b600080fd5b610140600480360381019061013b9190610e34565b610424565b60405161014d919061104e565b60405180910390f35b61015e61046d565b60405161016b919061100c565b60405180910390f35b61018e60048036038101906101899190610ee8565b6104fb565b60405161019b9190610ff1565b60405180910390f35b6101ac610626565b6040516101b9919061104e565b60405180910390f35b6101ca61066d565b6040516101d7919061104e565b60405180910390f35b6101fa60048036038101906101f59190610e99565b610673565b6040516102079190610ff1565b60405180910390f35b61022a60048036038101906102259190610ee8565b610868565b6040516102379190610ff1565b60405180910390f35b61024861090f565b604051610255919061104e565b60405180910390f35b61027860048036038101906102739190610e34565b610915565b604051610285919061104e565b60405180910390f35b6102a860048036038101906102a39190610e34565b61092d565b6040516102b5919061104e565b60405180910390f35b6102d860048036038101906102d39190610e34565b610945565b6040516102e5919061104e565b60405180910390f35b6102f661095d565b6040516103039190610fad565b60405180910390f35b61032660048036038101906103219190610e34565b610983565b604051610333919061104e565b60405180910390f35b6103446109cc565b604051610351919061100c565b60405180910390f35b610374600480360381019061036f9190610ee8565b610a5a565b6040516103819190610ff1565b60405180910390f35b6103a4600480360381019061039f9190610ee8565b610abd565b005b6103c060048036038101906103bb9190610e5d565b610c16565b6040516103cd919061104e565b60405180910390f35b6103de610c3b565b6040516103eb9190610fad565b60405180910390f35b61040e60048036038101906104099190610e34565b610c61565b60405161041b919061104e565b60405180910390f35b6000600a60008373ffffffffffffffffffffffffffffffffffffffff1673ffffffffffffffffffffffffffffffffffffffff168152602001908152602001600020549050919050565b6000805461047a906111b3565b80601f01602080910402602001604051908101604052809291908181526020018280546104a6906111b3565b80156104f35780601f106104c8576101008083540402835291602001916104f3565b820191906000526020600020905b8154815290600101906020018083116104d657829003601f168201915b505050505081565b60008073ffffffffffffffffffffffffffffffffffffffff168373ffffffffffffffffffffffffffffffffffffffff16141561053657600080fd5b81600660003373ffffffffffffffffffffffffffffffffffffffff1673ffffffffffffffffffffffffffffffffffffffff16815260200190815260200160002060008573ffffffffffffffffffffffffffffffffffffffff1673ffffffffffffffffffffffffffffffffffffffff168152602001908152602001600020819055508273ffffffffffffffffffffffffffffffffffffffff163373ffffffffffffffffffffffffffffffffffffffff167f8c5be1e5ebec7d5bd14f71427d1e84f3dd0314c0f7b2291e5b200ac8c7c3b92584604051610614919061104e565b60405180910390a36001905092915050565b6000600860003073ffffffffffffffffffffffffffffffffffffffff1673ffffffffffffffffffffffffffffffffffffffff16815260200190815260200160002054905090565b60035481565b6000600560008573ffffffffffffffffffffffffffffffffffffffff1673ffffffffffffffffffffffffffffffffffffffff168152602001908152602001600020548211156106c157600080fd5b600660008573ffffffffffffffffffffffffffffffffffffffff1673ffffffffffffffffffffffffffffffffffffffff16815260200190815260200160002060003373ffffffffffffffffffffffffffffffffffffffff1673ffffffffffffffffffffffffffffffffffffffff1681526020019081526020016000205482111561074a57600080fd5b81600660008673ffffffffffffffffffffffffffffffffffffffff1673ffffffffffffffffffffffffffffffffffffffff16815260200190815260200160002060003373ffffffffffffffffffffffffffffffffffffffff1673ffffffffffffffffffffffffffffffffffffffff168152602001908152602001600020546107d29190611104565b600660008673ffffffffffffffffffffffffffffffffffffffff1673ffffffffffffffffffffffffffffffffffffffff16815260200190815260200160002060003373ffffffffffffffffffffffffffffffffffffffff1673ffffffffffffffffffffffffffffffffffffffff1681526020019081526020016000208190555061085d848484610c79565b600190509392505050565b60008160056000600460009054906101000a900473ffffffffffffffffffffffffffffffffffffffff1673ffffffffffffffffffffffffffffffffffffffff1673ffffffffffffffffffffffffffffffffffffffff1681526020019081526020016000205410156108d857600080fd5b610905600460009054906101000a900473ffffffffffffffffffffffffffffffffffffffff168484610c79565b6001905092915050565b60025481565b60056020528060005260406000206000915090505481565b60096020528060005260406000206000915090505481565b600a6020528060005260406000206000915090505481565b600460009054906101000a900473ffffffffffffffffffffffffffffffffffffffff1681565b6000600960008373ffffffffffffffffffffffffffffffffffffffff1673ffffffffffffffffffffffffffffffffffffffff168152602001908152602001600020549050919050565b600180546109d9906111b3565b80601f0160208091040260200160405190810160405280929190818152602001828054610a05906111b3565b8015610a525780601f10610a2757610100808354040283529160200191610a52565b820191906000526020600020905b815481529060010190602001808311610a3557829003601f168201915b505050505081565b600081600560003373ffffffffffffffffffffffffffffffffffffffff1673ffffffffffffffffffffffffffffffffffffffff168152602001908152602001600020541015610aa857600080fd5b610ab3338484610c79565b6001905092915050565b600073ffffffffffffffffffffffffffffffffffffffff168273ffffffffffffffffffffffffffffffffffffffff161415610b2d576040517f08c379a0000000000000000000000000000000000000000000000000000000008152600401610b249061102e565b60405180910390fd5b80600560008473ffffffffffffffffffffffffffffffffffffffff1673ffffffffffffffffffffffffffffffffffffffff1681526020019081526020016000206000828254610b7c9190611104565b9250508190555080600560008073ffffffffffffffffffffffffffffffffffffffff1673ffffffffffffffffffffffffffffffffffffffff1681526020019081526020016000206000828254610bd291906110ae565b925050819055507fcc16f5dbb4873280815c1ee09dbd06736cffcc184412cf7a71a0fdb75d397ca58282604051610c0a929190610fc8565b60405180910390a15050565b6006602052816000526040600020602052806000526040600020600091509150505481565b600760009054906101000a900473ffffffffffffffffffffffffffffffffffffffff1681565b60086020528060005260406000206000915090505481565b600073ffffffffffffffffffffffffffffffffffffffff168273ffffffffffffffffffffffffffffffffffffffff161415610cb357600080fd5b80600560008573ffffffffffffffffffffffffffffffffffffffff1673ffffffffffffffffffffffffffffffffffffffff1681526020019081526020016000206000828254610d029190611104565b9250508190555080600560008473ffffffffffffffffffffffffffffffffffffffff1673ffffffffffffffffffffffffffffffffffffffff1681526020019081526020016000206000828254610d5891906110ae565b925050819055508173ffffffffffffffffffffffffffffffffffffffff168373ffffffffffffffffffffffffffffffffffffffff167f9ed053bb818ff08b8353cd46f78db1f0799f31c9e4458fdb425c10eccd2efc4483600560008773ffffffffffffffffffffffffffffffffffffffff1673ffffffffffffffffffffffffffffffffffffffff16815260200190815260200160002054604051610dfd929190611069565b60405180910390a3505050565b600081359050610e19816112a3565b92915050565b600081359050610e2e816112ba565b92915050565b600060208284031215610e4657600080fd5b6000610e5484828501610e0a565b91505092915050565b60008060408385031215610e7057600080fd5b6000610e7e85828601610e0a565b9250506020610e8f85828601610e0a565b9150509250929050565b600080600060608486031215610eae57600080fd5b6000610ebc86828701610e0a565b9350506020610ecd86828701610e0a565b9250506040610ede86828701610e1f565b9150509250925092565b60008060408385031215610efb57600080fd5b6000610f0985828601610e0a565b9250506020610f1a85828601610e1f565b9150509250929050565b610f2d81611138565b82525050565b610f3c8161114a565b82525050565b6000610f4d82611092565b610f57818561109d565b9350610f67818560208601611180565b610f7081611243565b840191505092915050565b6000610f8860218361109d565b9150610f9382611254565b604082019050919050565b610fa781611176565b82525050565b6000602082019050610fc26000830184610f24565b92915050565b6000604082019050610fdd6000830185610f24565b610fea6020830184610f9e565b9392505050565b60006020820190506110066000830184610f33565b92915050565b600060208201905081810360008301526110268184610f42565b905092915050565b6000602082019050818103600083015261104781610f7b565b9050919050565b60006020820190506110636000830184610f9e565b92915050565b600060408201905061107e6000830185610f9e565b61108b6020830184610f9e565b9392505050565b600081519050919050565b600082825260208201905092915050565b60006110b982611176565b91506110c483611176565b9250827fffffffffffffffffffffffffffffffffffffffffffffffffffffffffffffffff038211156110f9576110f86111e5565b5b828201905092915050565b600061110f82611176565b915061111a83611176565b92508282101561112d5761112c6111e5565b5b828203905092915050565b600061114382611156565b9050919050565b60008115159050919050565b600073ffffffffffffffffffffffffffffffffffffffff82169050919050565b6000819050919050565b60005b8381101561119e578082015181840152602081019050611183565b838111156111ad576000848401525b50505050565b600060028204905060018216806111cb57607f821691505b602082108114156111df576111de611214565b5b50919050565b7f4e487b7100000000000000000000000000000000000000000000000000000000600052601160045260246000fd5b7f4e487b7100000000000000000000000000000000000000000000000000000000600052602260045260246000fd5b6000601f19601f8301169050919050565b7f45524332303a206275726e2066726f6d20746865207a65726f2061646472657360008201527f7300000000000000000000000000000000000000000000000000000000000000602082015250565b6112ac81611138565b81146112b757600080fd5b50565b6112c381611176565b81146112ce57600080fd5b5056fea2646970667358221220c11d3fd162f98061070d24db83adc7f3fb3bf739519eece274b95e02412c8ba164736f6c63430008040033",
  "immutableReferences": {},
  "source": "// SPDX-License-Identifier: UNLICENSED\r\n\r\npragma solidity ^0.8.4;\r\nimport \"./Token.sol\";\r\n\r\ncontract Liquidity is Token {\r\n    address public liquidityContract = address(this);\r\n    mapping(address => uint256) public liquidityInvestmentBalance;\r\n    mapping(address => uint256) public stakedInvestmentBalance;\r\n    mapping(address => uint256) public stakedTokenBalance;\r\n\r\n    event LiquidityAdded(uint256 _balance, uint256 _amount, address _contractAddress);\r\n\r\n    modifier checkValidityForLiquidity(address _user, uint256 _tokenAmount, uint256 _investmentAmount) {\r\n        require(_tokenAmount > 0, 'Token amount must be greater than 0');\r\n        require(_investmentAmount > 0, 'INvestment amount must be greater than 0');\r\n        require(_user != address(0)); \r\n        _;\r\n    }\r\n\r\n    function totalLiquidity() public view returns(uint256) {\r\n        return liquidityInvestmentBalance[address(this)];\r\n    }\r\n\r\n    function stackedInvestmentLiquidity(address _user) public view returns(uint256) {\r\n        return stakedInvestmentBalance[_user];\r\n    }\r\n\r\n    function stackedTokenLiquidity(address _user) public view returns(uint256) {\r\n        return stakedTokenBalance[_user];\r\n    }\r\n\r\n    function addLiquidity(uint256 _investmentAmount) internal {\r\n        require(_investmentAmount > 0, 'INvestment amount must be greater than 0');\r\n        liquidityInvestmentBalance[address(this)] += _investmentAmount;\r\n        emit LiquidityAdded(liquidityInvestmentBalance[address(this)], _investmentAmount, address(this));\r\n    }\r\n\r\n    // Add liquidity to liquidity smart contract\r\n    function addStakingLiquidity(address _user, uint256 _tokenAmount, uint256 _investmentAmount) internal checkValidityForLiquidity(_user, _tokenAmount, _investmentAmount) {\r\n        stakedInvestmentBalance[_user] += _investmentAmount;\r\n        stakedTokenBalance[_user] += _tokenAmount;\r\n    }\r\n}",
  "sourcePath": "E:\\Work\\Minddef task\\Token-and-staking-management\\contracts\\Liquidity.sol",
  "compiler": {
    "name": "solc",
    "version": "0.8.4+commit.c7e474f2.Emscripten.clang"
  },
  "schemaVersion": "3.2.3",
  "updatedAt": "2022-11-03T16:55:39.422Z",
  "networkType": "ethereum",
  "devdoc": {
    "kind": "dev",
    "methods": {},
    "version": 1
  },
  "userdoc": {
    "kind": "user",
    "methods": {},
    "version": 1
  }
}