{
  "contractName": "Invest",
  "abi": [
    {
      "inputs": [
        {
          "internalType": "address",
          "name": "",
          "type": "address"
        }
      ],
      "name": "Investors",
      "outputs": [
        {
          "internalType": "uint256",
          "name": "lendingDate",
          "type": "uint256"
        },
        {
          "internalType": "uint256",
          "name": "amount",
          "type": "uint256"
        }
      ],
      "stateMutability": "view",
      "type": "function"
    },
    {
      "inputs": [
        {
          "internalType": "uint256",
          "name": "_amount",
          "type": "uint256"
        }
      ],
      "name": "investInMPay",
      "outputs": [],
      "stateMutability": "nonpayable",
      "type": "function"
    }
  ],
  "bytecode": "0x608060405234801561001057600080fd5b5061043d806100206000396000f3fe608060405234801561001057600080fd5b50600436106100365760003560e01c8063dd1992a71461003b578063e8930efd14610057575b600080fd5b61005560048036038101906100509190610208565b610088565b005b610071600480360381019061006c9190610293565b6101a9565b60405161007f9291906102cf565b60405180910390f35b80600073ffffffffffffffffffffffffffffffffffffffff163373ffffffffffffffffffffffffffffffffffffffff16036100f8576040517f08c379a00000000000000000000000000000000000000000000000000000000081526004016100ef9061037b565b60405180910390fd5b6000811161013b576040517f08c379a0000000000000000000000000000000000000000000000000000000008152600401610132906103e7565b60405180910390fd5b6040518060400160405280428152602001838152506000803373ffffffffffffffffffffffffffffffffffffffff1673ffffffffffffffffffffffffffffffffffffffff16815260200190815260200160002060008201518160000155602082015181600101559050505050565b60006020528060005260406000206000915090508060000154908060010154905082565b600080fd5b6000819050919050565b6101e5816101d2565b81146101f057600080fd5b50565b600081359050610202816101dc565b92915050565b60006020828403121561021e5761021d6101cd565b5b600061022c848285016101f3565b91505092915050565b600073ffffffffffffffffffffffffffffffffffffffff82169050919050565b600061026082610235565b9050919050565b61027081610255565b811461027b57600080fd5b50565b60008135905061028d81610267565b92915050565b6000602082840312156102a9576102a86101cd565b5b60006102b78482850161027e565b91505092915050565b6102c9816101d2565b82525050565b60006040820190506102e460008301856102c0565b6102f160208301846102c0565b9392505050565b600082825260208201905092915050565b7f5a65726f204164647265737320456e636f756e74657265642e20506c6561736560008201527f20496e766573742046726f6d2056616c69642041646472657373212100000000602082015250565b6000610365603c836102f8565b915061037082610309565b604082019050919050565b6000602082019050818103600083015261039481610358565b9050919050565b7f506c6561736520496e76657374204d6f7265205468616e203020457468657200600082015250565b60006103d1601f836102f8565b91506103dc8261039b565b602082019050919050565b60006020820190508181036000830152610400816103c4565b905091905056fea26469706673582212208c4e4168f75f0f68bc035ccdc46ee150229b91e0cdc68787a7c2a952d676165364736f6c63430008100033",
  "immutableReferences": {},
  "source": "// SPDX-License-Identifier: UNLICENSED\n\npragma solidity ^0.8.16;\n\ncontract Invest {\n    // mapping (address => uint256) public investors;\n    struct investor {\n        uint lendingDate; \n        uint amount;\n    }\n\n    mapping(address => investor) public Investors;\n\n    modifier validateInvestor(uint256 _amount) {\n        require(msg.sender != address(0), \"Zero Address Encountered. Please Invest From Valid Address!!\");\n        require(_amount > 0, \"Please Invest More Than 0 Ether\");\n        _;\n    }\n\n    function investInMPay(uint256 _amount) public validateInvestor(_amount) {\n        Investors[msg.sender] = investor(block.timestamp, _amount);\n    }\n}",
  "sourcePath": "/home/savan-elluminati/Savan/Blockchain/Token & Pool Management/contracts/Invest.sol",
  "compiler": {
    "name": "solc",
    "version": "0.8.16+commit.07a7930e.Emscripten.clang"
  },
  "schemaVersion": "3.4.9",
  "updatedAt": "2022-10-21T10:52:58.888Z",
  "devdoc": {
    "kind": "dev",
    "methods": {},
    "version": 1
  },
  "userdoc": {
    "kind": "user",
    "methods": {},
    "version": 1
  }
}