{
  "contractName": "Invest",
  "abi": [
    {
      "anonymous": false,
      "inputs": [
        {
          "indexed": true,
          "internalType": "address",
          "name": "owner",
          "type": "address"
        },
        {
          "indexed": true,
          "internalType": "address",
          "name": "spender",
          "type": "address"
        },
        {
          "indexed": false,
          "internalType": "uint256",
          "name": "value",
          "type": "uint256"
        }
      ],
      "name": "Approval",
      "type": "event"
    },
    {
      "anonymous": false,
      "inputs": [
        {
          "indexed": true,
          "internalType": "address",
          "name": "from",
          "type": "address"
        },
        {
          "indexed": true,
          "internalType": "address",
          "name": "to",
          "type": "address"
        },
        {
          "indexed": false,
          "internalType": "uint256",
          "name": "_value",
          "type": "uint256"
        },
        {
          "indexed": false,
          "internalType": "uint256",
          "name": "balance",
          "type": "uint256"
        }
      ],
      "name": "Transfer",
      "type": "event"
    },
    {
      "inputs": [
        {
          "internalType": "address",
          "name": "",
          "type": "address"
        }
      ],
      "name": "Investors",
      "outputs": [
        {
          "internalType": "uint256",
          "name": "lendingDate",
          "type": "uint256"
        },
        {
          "internalType": "uint256",
          "name": "duration",
          "type": "uint256"
        },
        {
          "internalType": "uint256",
          "name": "amount",
          "type": "uint256"
        }
      ],
      "stateMutability": "view",
      "type": "function"
    },
    {
      "inputs": [
        {
          "internalType": "address",
          "name": "",
          "type": "address"
        },
        {
          "internalType": "address",
          "name": "",
          "type": "address"
        }
      ],
      "name": "allowance",
      "outputs": [
        {
          "internalType": "uint256",
          "name": "",
          "type": "uint256"
        }
      ],
      "stateMutability": "view",
      "type": "function"
    },
    {
      "inputs": [
        {
          "internalType": "address",
          "name": "_spender",
          "type": "address"
        },
        {
          "internalType": "uint256",
          "name": "_value",
          "type": "uint256"
        }
      ],
      "name": "approve",
      "outputs": [
        {
          "internalType": "bool",
          "name": "success",
          "type": "bool"
        }
      ],
      "stateMutability": "nonpayable",
      "type": "function"
    },
    {
      "inputs": [
        {
          "internalType": "address",
          "name": "",
          "type": "address"
        }
      ],
      "name": "balanceOf",
      "outputs": [
        {
          "internalType": "uint256",
          "name": "",
          "type": "uint256"
        }
      ],
      "stateMutability": "view",
      "type": "function"
    },
    {
      "inputs": [],
      "name": "decimals",
      "outputs": [
        {
          "internalType": "uint256",
          "name": "",
          "type": "uint256"
        }
      ],
      "stateMutability": "view",
      "type": "function"
    },
    {
      "inputs": [],
      "name": "name",
      "outputs": [
        {
          "internalType": "string",
          "name": "",
          "type": "string"
        }
      ],
      "stateMutability": "view",
      "type": "function"
    },
    {
      "inputs": [],
      "name": "owner",
      "outputs": [
        {
          "internalType": "address",
          "name": "",
          "type": "address"
        }
      ],
      "stateMutability": "view",
      "type": "function"
    },
    {
      "inputs": [],
      "name": "symbol",
      "outputs": [
        {
          "internalType": "string",
          "name": "",
          "type": "string"
        }
      ],
      "stateMutability": "view",
      "type": "function"
    },
    {
      "inputs": [],
      "name": "totalSupply",
      "outputs": [
        {
          "internalType": "uint256",
          "name": "",
          "type": "uint256"
        }
      ],
      "stateMutability": "view",
      "type": "function"
    },
    {
      "inputs": [
        {
          "internalType": "address",
          "name": "_to",
          "type": "address"
        },
        {
          "internalType": "uint256",
          "name": "_value",
          "type": "uint256"
        }
      ],
      "name": "transfer",
      "outputs": [
        {
          "internalType": "bool",
          "name": "success",
          "type": "bool"
        }
      ],
      "stateMutability": "nonpayable",
      "type": "function"
    },
    {
      "inputs": [
        {
          "internalType": "address",
          "name": "_from",
          "type": "address"
        },
        {
          "internalType": "address",
          "name": "_to",
          "type": "address"
        },
        {
          "internalType": "uint256",
          "name": "_value",
          "type": "uint256"
        }
      ],
      "name": "transferFrom",
      "outputs": [
        {
          "internalType": "bool",
          "name": "success",
          "type": "bool"
        }
      ],
      "stateMutability": "nonpayable",
      "type": "function"
    },
    {
      "inputs": [
        {
          "internalType": "address",
          "name": "_to",
          "type": "address"
        },
        {
          "internalType": "uint256",
          "name": "_value",
          "type": "uint256"
        }
      ],
      "name": "transferTokenToInvestor",
      "outputs": [
        {
          "internalType": "bool",
          "name": "success",
          "type": "bool"
        }
      ],
      "stateMutability": "nonpayable",
      "type": "function"
    },
    {
      "inputs": [
        {
          "internalType": "uint256",
          "name": "_amount",
          "type": "uint256"
        }
      ],
      "name": "investInMPay",
      "outputs": [],
      "stateMutability": "nonpayable",
      "type": "function"
    }
  ],
  "bytecode": "0x60806040526040518060400160405280600d81526020017f4d696e6470617920546f6b656e00000000000000000000000000000000000000815250600090805190602001906200005192919062000189565b506040518060400160405280600781526020017f4d494e4450415900000000000000000000000000000000000000000000000000815250600190805190602001906200009f92919062000189565b506012600255348015620000b257600080fd5b5033600460006101000a81548173ffffffffffffffffffffffffffffffffffffffff021916908373ffffffffffffffffffffffffffffffffffffffff160217905550600254600a62000105919062000294565b620f4240620001159190620003d1565b60038190555060035460056000600460009054906101000a900473ffffffffffffffffffffffffffffffffffffffff1673ffffffffffffffffffffffffffffffffffffffff1673ffffffffffffffffffffffffffffffffffffffff16815260200190815260200160002081905550620004dd565b82805462000197906200043c565b90600052602060002090601f016020900481019282620001bb576000855562000207565b82601f10620001d657805160ff191683800117855562000207565b8280016001018555821562000207579182015b8281111562000206578251825591602001919060010190620001e9565b5b5090506200021691906200021a565b5090565b5b80821115620002355760008160009055506001016200021b565b5090565b6000808291508390505b60018511156200028b5780860481111562000263576200026262000472565b5b6001851615620002735780820291505b80810290506200028385620004d0565b945062000243565b94509492505050565b6000620002a18262000432565b9150620002ae8362000432565b9250620002dd7fffffffffffffffffffffffffffffffffffffffffffffffffffffffffffffffff8484620002e5565b905092915050565b600082620002f75760019050620003ca565b81620003075760009050620003ca565b81600181146200032057600281146200032b5762000361565b6001915050620003ca565b60ff84111562000340576200033f62000472565b5b8360020a9150848211156200035a576200035962000472565b5b50620003ca565b5060208310610133831016604e8410600b84101617156200039b5782820a90508381111562000395576200039462000472565b5b620003ca565b620003aa848484600162000239565b92509050818404811115620003c457620003c362000472565b5b81810290505b9392505050565b6000620003de8262000432565b9150620003eb8362000432565b9250817fffffffffffffffffffffffffffffffffffffffffffffffffffffffffffffffff048311821515161562000427576200042662000472565b5b828202905092915050565b6000819050919050565b600060028204905060018216806200045557607f821691505b602082108114156200046c576200046b620004a1565b5b50919050565b7f4e487b7100000000000000000000000000000000000000000000000000000000600052601160045260246000fd5b7f4e487b7100000000000000000000000000000000000000000000000000000000600052602260045260246000fd5b60008160011c9050919050565b61129e80620004ed6000396000f3fe608060405234801561001057600080fd5b50600436106100cf5760003560e01c806370a082311161008c578063a9059cbb11610066578063a9059cbb1461022a578063dd1992a71461025a578063dd62ed3e14610276578063e8930efd146102a6576100cf565b806370a08231146101be5780638da5cb5b146101ee57806395d89b411461020c576100cf565b806306fdde03146100d4578063095ea7b3146100f257806318160ddd1461012257806323b872dd14610140578063251a52f814610170578063313ce567146101a0575b600080fd5b6100dc6102d8565b6040516100e99190610e69565b60405180910390f35b61010c60048036038101906101079190610d22565b610366565b6040516101199190610e4e565b60405180910390f35b61012a610491565b6040516101379190610ecb565b60405180910390f35b61015a60048036038101906101559190610cd3565b610497565b6040516101679190610e4e565b60405180910390f35b61018a60048036038101906101859190610d22565b61068c565b6040516101979190610e4e565b60405180910390f35b6101a8610733565b6040516101b59190610ecb565b60405180910390f35b6101d860048036038101906101d39190610c6e565b610739565b6040516101e59190610ecb565b60405180910390f35b6101f6610751565b6040516102039190610e33565b60405180910390f35b610214610777565b6040516102219190610e69565b60405180910390f35b610244600480360381019061023f9190610d22565b610805565b6040516102519190610e4e565b60405180910390f35b610274600480360381019061026f9190610d5e565b610868565b005b610290600480360381019061028b9190610c97565b610a64565b60405161029d9190610ecb565b60405180910390f35b6102c060048036038101906102bb9190610c6e565b610a89565b6040516102cf93929190610f0f565b60405180910390f35b600080546102e5906110f2565b80601f0160208091040260200160405190810160405280929190818152602001828054610311906110f2565b801561035e5780601f106103335761010080835404028352916020019161035e565b820191906000526020600020905b81548152906001019060200180831161034157829003601f168201915b505050505081565b60008073ffffffffffffffffffffffffffffffffffffffff168373ffffffffffffffffffffffffffffffffffffffff1614156103a157600080fd5b81600660003373ffffffffffffffffffffffffffffffffffffffff1673ffffffffffffffffffffffffffffffffffffffff16815260200190815260200160002060008573ffffffffffffffffffffffffffffffffffffffff1673ffffffffffffffffffffffffffffffffffffffff168152602001908152602001600020819055508273ffffffffffffffffffffffffffffffffffffffff163373ffffffffffffffffffffffffffffffffffffffff167f8c5be1e5ebec7d5bd14f71427d1e84f3dd0314c0f7b2291e5b200ac8c7c3b9258460405161047f9190610ecb565b60405180910390a36001905092915050565b60035481565b6000600560008573ffffffffffffffffffffffffffffffffffffffff1673ffffffffffffffffffffffffffffffffffffffff168152602001908152602001600020548211156104e557600080fd5b600660008573ffffffffffffffffffffffffffffffffffffffff1673ffffffffffffffffffffffffffffffffffffffff16815260200190815260200160002060003373ffffffffffffffffffffffffffffffffffffffff1673ffffffffffffffffffffffffffffffffffffffff1681526020019081526020016000205482111561056e57600080fd5b81600660008673ffffffffffffffffffffffffffffffffffffffff1673ffffffffffffffffffffffffffffffffffffffff16815260200190815260200160002060003373ffffffffffffffffffffffffffffffffffffffff1673ffffffffffffffffffffffffffffffffffffffff168152602001908152602001600020546105f69190611043565b600660008673ffffffffffffffffffffffffffffffffffffffff1673ffffffffffffffffffffffffffffffffffffffff16815260200190815260200160002060003373ffffffffffffffffffffffffffffffffffffffff1673ffffffffffffffffffffffffffffffffffffffff16815260200190815260200160002081905550610681848484610ab3565b600190509392505050565b60008160056000600460009054906101000a900473ffffffffffffffffffffffffffffffffffffffff1673ffffffffffffffffffffffffffffffffffffffff1673ffffffffffffffffffffffffffffffffffffffff1681526020019081526020016000205410156106fc57600080fd5b610729600460009054906101000a900473ffffffffffffffffffffffffffffffffffffffff168484610ab3565b6001905092915050565b60025481565b60056020528060005260406000206000915090505481565b600460009054906101000a900473ffffffffffffffffffffffffffffffffffffffff1681565b60018054610784906110f2565b80601f01602080910402602001604051908101604052809291908181526020018280546107b0906110f2565b80156107fd5780601f106107d2576101008083540402835291602001916107fd565b820191906000526020600020905b8154815290600101906020018083116107e057829003601f168201915b505050505081565b600081600560003373ffffffffffffffffffffffffffffffffffffffff1673ffffffffffffffffffffffffffffffffffffffff16815260200190815260200160002054101561085357600080fd5b61085e338484610ab3565b6001905092915050565b80600073ffffffffffffffffffffffffffffffffffffffff163373ffffffffffffffffffffffffffffffffffffffff1614156108d9576040517f08c379a00000000000000000000000000000000000000000000000000000000081526004016108d090610eab565b60405180910390fd5b6000811161091c576040517f08c379a000000000000000000000000000000000000000000000000000000000815260040161091390610e8b565b60405180910390fd5b60405180606001604052804281526020016103844261093b9190610f62565b815260200183815250600760003373ffffffffffffffffffffffffffffffffffffffff1673ffffffffffffffffffffffffffffffffffffffff168152602001908152602001600020600082015181600001556020820151816001015560408201518160020155905050674563918244f400008211156109f5576109ef336103e86014856109c89190610fb8565b6109d29190610fe9565b6103e8856109e09190610fe9565b6109ea9190610f62565b61068c565b50610a60565b670de0b6b3a7640000821115610a4657610a40336103e8600a85610a199190610fb8565b610a239190610fe9565b6103e885610a319190610fe9565b610a3b9190610f62565b61068c565b50610a5f565b610a5d336103e884610a589190610fe9565b61068c565b505b5b5050565b6006602052816000526040600020602052806000526040600020600091509150505481565b60076020528060005260406000206000915090508060000154908060010154908060020154905083565b600073ffffffffffffffffffffffffffffffffffffffff168273ffffffffffffffffffffffffffffffffffffffff161415610aed57600080fd5b80600560008573ffffffffffffffffffffffffffffffffffffffff1673ffffffffffffffffffffffffffffffffffffffff1681526020019081526020016000206000828254610b3c9190611043565b9250508190555080600560008473ffffffffffffffffffffffffffffffffffffffff1673ffffffffffffffffffffffffffffffffffffffff1681526020019081526020016000206000828254610b929190610f62565b925050819055508173ffffffffffffffffffffffffffffffffffffffff168373ffffffffffffffffffffffffffffffffffffffff167f9ed053bb818ff08b8353cd46f78db1f0799f31c9e4458fdb425c10eccd2efc4483600560008773ffffffffffffffffffffffffffffffffffffffff1673ffffffffffffffffffffffffffffffffffffffff16815260200190815260200160002054604051610c37929190610ee6565b60405180910390a3505050565b600081359050610c538161123a565b92915050565b600081359050610c6881611251565b92915050565b600060208284031215610c8057600080fd5b6000610c8e84828501610c44565b91505092915050565b60008060408385031215610caa57600080fd5b6000610cb885828601610c44565b9250506020610cc985828601610c44565b9150509250929050565b600080600060608486031215610ce857600080fd5b6000610cf686828701610c44565b9350506020610d0786828701610c44565b9250506040610d1886828701610c59565b9150509250925092565b60008060408385031215610d3557600080fd5b6000610d4385828601610c44565b9250506020610d5485828601610c59565b9150509250929050565b600060208284031215610d7057600080fd5b6000610d7e84828501610c59565b91505092915050565b610d9081611077565b82525050565b610d9f81611089565b82525050565b6000610db082610f46565b610dba8185610f51565b9350610dca8185602086016110bf565b610dd3816111b1565b840191505092915050565b6000610deb601f83610f51565b9150610df6826111c2565b602082019050919050565b6000610e0e603c83610f51565b9150610e19826111eb565b604082019050919050565b610e2d816110b5565b82525050565b6000602082019050610e486000830184610d87565b92915050565b6000602082019050610e636000830184610d96565b92915050565b60006020820190508181036000830152610e838184610da5565b905092915050565b60006020820190508181036000830152610ea481610dde565b9050919050565b60006020820190508181036000830152610ec481610e01565b9050919050565b6000602082019050610ee06000830184610e24565b92915050565b6000604082019050610efb6000830185610e24565b610f086020830184610e24565b9392505050565b6000606082019050610f246000830186610e24565b610f316020830185610e24565b610f3e6040830184610e24565b949350505050565b600081519050919050565b600082825260208201905092915050565b6000610f6d826110b5565b9150610f78836110b5565b9250827fffffffffffffffffffffffffffffffffffffffffffffffffffffffffffffffff03821115610fad57610fac611124565b5b828201905092915050565b6000610fc3826110b5565b9150610fce836110b5565b925082610fde57610fdd611153565b5b828204905092915050565b6000610ff4826110b5565b9150610fff836110b5565b9250817fffffffffffffffffffffffffffffffffffffffffffffffffffffffffffffffff048311821515161561103857611037611124565b5b828202905092915050565b600061104e826110b5565b9150611059836110b5565b92508282101561106c5761106b611124565b5b828203905092915050565b600061108282611095565b9050919050565b60008115159050919050565b600073ffffffffffffffffffffffffffffffffffffffff82169050919050565b6000819050919050565b60005b838110156110dd5780820151818401526020810190506110c2565b838111156110ec576000848401525b50505050565b6000600282049050600182168061110a57607f821691505b6020821081141561111e5761111d611182565b5b50919050565b7f4e487b7100000000000000000000000000000000000000000000000000000000600052601160045260246000fd5b7f4e487b7100000000000000000000000000000000000000000000000000000000600052601260045260246000fd5b7f4e487b7100000000000000000000000000000000000000000000000000000000600052602260045260246000fd5b6000601f19601f8301169050919050565b7f506c6561736520496e76657374204d6f7265205468616e203020457468657200600082015250565b7f5a65726f204164647265737320456e636f756e74657265642e20506c6561736560008201527f20496e766573742046726f6d2056616c69642041646472657373212100000000602082015250565b61124381611077565b811461124e57600080fd5b50565b61125a816110b5565b811461126557600080fd5b5056fea2646970667358221220ad8848db24e0a6028f5abded760305c81abbe6546c974566a6d8421b2b61937764736f6c63430008040033",
  "immutableReferences": {},
  "source": "// SPDX-License-Identifier: UNLICENSED\r\n\r\npragma solidity ^0.8.4;\r\n\r\nimport \"./Token.sol\";\r\n\r\ncontract Invest is Token {\r\n    // mapping (address => uint256) public investors;\r\n    struct investor {\r\n        uint lendingDate; \r\n        uint duration;\r\n        uint amount;\r\n    }\r\n\r\n    mapping(address => investor) public Investors;\r\n\r\n    modifier validateInvestor(uint256 _amount) {\r\n        require(msg.sender != address(0), \"Zero Address Encountered. Please Invest From Valid Address!!\");\r\n        require(_amount > 0, \"Please Invest More Than 0 Ether\");\r\n        _;\r\n    }\r\n\r\n    function investInMPay(uint256 _amount) public validateInvestor(_amount) {\r\n        Investors[msg.sender] = investor(block.timestamp, block.timestamp + 15 minutes, _amount);\r\n        if(_amount > 5 ether){\r\n            transferTokenToInvestor(msg.sender, (_amount * 1000) + ((_amount / 20) * 1000));\r\n        } else if (_amount > 1 ether) {\r\n            transferTokenToInvestor(msg.sender, (_amount * 1000) + ((_amount / 10) * 1000));\r\n        } else {\r\n            transferTokenToInvestor(msg.sender, _amount * 1000);\r\n        }\r\n    }\r\n}",
  "sourcePath": "E:/Work/Minddef task/Token-and-staking-management/contracts/Invest.sol",
  "compiler": {
    "name": "solc",
    "version": "0.8.4+commit.c7e474f2.Emscripten.clang"
  },
  "schemaVersion": "3.2.3",
  "updatedAt": "2022-10-29T13:05:14.980Z",
  "devdoc": {
    "kind": "dev",
    "methods": {},
    "version": 1
  },
  "userdoc": {
    "kind": "user",
    "methods": {},
    "version": 1
  }
}