{
  "contractName": "Invest",
  "abi": [
    {
      "anonymous": false,
      "inputs": [
        {
          "indexed": true,
          "internalType": "address",
          "name": "owner",
          "type": "address"
        },
        {
          "indexed": true,
          "internalType": "address",
          "name": "spender",
          "type": "address"
        },
        {
          "indexed": false,
          "internalType": "uint256",
          "name": "value",
          "type": "uint256"
        }
      ],
      "name": "Approval",
      "type": "event"
    },
    {
      "anonymous": false,
      "inputs": [
        {
          "indexed": false,
          "internalType": "address",
          "name": "from",
          "type": "address"
        },
        {
          "indexed": false,
          "internalType": "uint256",
          "name": "_amount",
          "type": "uint256"
        }
      ],
      "name": "Burn",
      "type": "event"
    },
    {
      "anonymous": false,
      "inputs": [
        {
          "indexed": true,
          "internalType": "address",
          "name": "from",
          "type": "address"
        },
        {
          "indexed": true,
          "internalType": "address",
          "name": "to",
          "type": "address"
        },
        {
          "indexed": false,
          "internalType": "uint256",
          "name": "_value",
          "type": "uint256"
        },
        {
          "indexed": false,
          "internalType": "uint256",
          "name": "balance",
          "type": "uint256"
        }
      ],
      "name": "Transfer",
      "type": "event"
    },
    {
      "inputs": [
        {
          "internalType": "address",
          "name": "",
          "type": "address"
        }
      ],
      "name": "Investors",
      "outputs": [
        {
          "internalType": "uint256",
          "name": "lendingDate",
          "type": "uint256"
        },
        {
          "internalType": "uint256",
          "name": "duration",
          "type": "uint256"
        },
        {
          "internalType": "uint256",
          "name": "amount",
          "type": "uint256"
        }
      ],
      "stateMutability": "view",
      "type": "function"
    },
    {
      "inputs": [
        {
          "internalType": "address",
          "name": "",
          "type": "address"
        },
        {
          "internalType": "address",
          "name": "",
          "type": "address"
        }
      ],
      "name": "allowance",
      "outputs": [
        {
          "internalType": "uint256",
          "name": "",
          "type": "uint256"
        }
      ],
      "stateMutability": "view",
      "type": "function"
    },
    {
      "inputs": [
        {
          "internalType": "address",
          "name": "_spender",
          "type": "address"
        },
        {
          "internalType": "uint256",
          "name": "_value",
          "type": "uint256"
        }
      ],
      "name": "approve",
      "outputs": [
        {
          "internalType": "bool",
          "name": "success",
          "type": "bool"
        }
      ],
      "stateMutability": "nonpayable",
      "type": "function"
    },
    {
      "inputs": [
        {
          "internalType": "address",
          "name": "",
          "type": "address"
        }
      ],
      "name": "balanceOf",
      "outputs": [
        {
          "internalType": "uint256",
          "name": "",
          "type": "uint256"
        }
      ],
      "stateMutability": "view",
      "type": "function"
    },
    {
      "inputs": [
        {
          "internalType": "address",
          "name": "_user",
          "type": "address"
        },
        {
          "internalType": "uint256",
          "name": "_amount",
          "type": "uint256"
        }
      ],
      "name": "burnToken",
      "outputs": [],
      "stateMutability": "nonpayable",
      "type": "function"
    },
    {
      "inputs": [],
      "name": "decimals",
      "outputs": [
        {
          "internalType": "uint256",
          "name": "",
          "type": "uint256"
        }
      ],
      "stateMutability": "view",
      "type": "function"
    },
    {
      "inputs": [],
      "name": "liquidityContract",
      "outputs": [
        {
          "internalType": "address",
          "name": "",
          "type": "address"
        }
      ],
      "stateMutability": "view",
      "type": "function"
    },
    {
      "inputs": [
        {
          "internalType": "address",
          "name": "",
          "type": "address"
        }
      ],
      "name": "liquidityInvestmentBalance",
      "outputs": [
        {
          "internalType": "uint256",
          "name": "",
          "type": "uint256"
        }
      ],
      "stateMutability": "view",
      "type": "function"
    },
    {
      "inputs": [
        {
          "internalType": "address",
          "name": "",
          "type": "address"
        }
      ],
      "name": "liquidityTokenBalance",
      "outputs": [
        {
          "internalType": "uint256",
          "name": "",
          "type": "uint256"
        }
      ],
      "stateMutability": "view",
      "type": "function"
    },
    {
      "inputs": [],
      "name": "name",
      "outputs": [
        {
          "internalType": "string",
          "name": "",
          "type": "string"
        }
      ],
      "stateMutability": "view",
      "type": "function"
    },
    {
      "inputs": [],
      "name": "owner",
      "outputs": [
        {
          "internalType": "address",
          "name": "",
          "type": "address"
        }
      ],
      "stateMutability": "view",
      "type": "function"
    },
    {
      "inputs": [],
      "name": "symbol",
      "outputs": [
        {
          "internalType": "string",
          "name": "",
          "type": "string"
        }
      ],
      "stateMutability": "view",
      "type": "function"
    },
    {
      "inputs": [],
      "name": "totalSupply",
      "outputs": [
        {
          "internalType": "uint256",
          "name": "",
          "type": "uint256"
        }
      ],
      "stateMutability": "view",
      "type": "function"
    },
    {
      "inputs": [
        {
          "internalType": "address",
          "name": "_to",
          "type": "address"
        },
        {
          "internalType": "uint256",
          "name": "_value",
          "type": "uint256"
        }
      ],
      "name": "transfer",
      "outputs": [
        {
          "internalType": "bool",
          "name": "success",
          "type": "bool"
        }
      ],
      "stateMutability": "nonpayable",
      "type": "function"
    },
    {
      "inputs": [
        {
          "internalType": "address",
          "name": "_from",
          "type": "address"
        },
        {
          "internalType": "address",
          "name": "_to",
          "type": "address"
        },
        {
          "internalType": "uint256",
          "name": "_value",
          "type": "uint256"
        }
      ],
      "name": "transferFrom",
      "outputs": [
        {
          "internalType": "bool",
          "name": "success",
          "type": "bool"
        }
      ],
      "stateMutability": "nonpayable",
      "type": "function"
    },
    {
      "inputs": [
        {
          "internalType": "address",
          "name": "_to",
          "type": "address"
        },
        {
          "internalType": "uint256",
          "name": "_value",
          "type": "uint256"
        }
      ],
      "name": "transferTokenToInvestor",
      "outputs": [
        {
          "internalType": "bool",
          "name": "success",
          "type": "bool"
        }
      ],
      "stateMutability": "nonpayable",
      "type": "function"
    },
    {
      "inputs": [
        {
          "internalType": "uint256",
          "name": "_amount",
          "type": "uint256"
        }
      ],
      "name": "investInMPay",
      "outputs": [],
      "stateMutability": "nonpayable",
      "type": "function"
    },
    {
      "inputs": [],
      "name": "cancelInvestment",
      "outputs": [],
      "stateMutability": "nonpayable",
      "type": "function"
    },
    {
      "inputs": [],
      "name": "stakeInvestment",
      "outputs": [],
      "stateMutability": "nonpayable",
      "type": "function"
    }
  ],
  "bytecode": "0x60806040526040518060400160405280600d81526020017f4d696e6470617920546f6b656e0000000000000000000000000000000000000081525060009080519060200190620000519291906200020b565b506040518060400160405280600781526020017f4d494e4450415900000000000000000000000000000000000000000000000000815250600190805190602001906200009f9291906200020b565b50601260025530600760006101000a81548173ffffffffffffffffffffffffffffffffffffffff021916908373ffffffffffffffffffffffffffffffffffffffff16021790555030600b60006101000a81548173ffffffffffffffffffffffffffffffffffffffff021916908373ffffffffffffffffffffffffffffffffffffffff1602179055503480156200013457600080fd5b5033600460006101000a81548173ffffffffffffffffffffffffffffffffffffffff021916908373ffffffffffffffffffffffffffffffffffffffff160217905550600254600a62000187919062000316565b620f424062000197919062000453565b60038190555060035460056000600460009054906101000a900473ffffffffffffffffffffffffffffffffffffffff1673ffffffffffffffffffffffffffffffffffffffff1673ffffffffffffffffffffffffffffffffffffffff168152602001908152602001600020819055506200055f565b8280546200021990620004be565b90600052602060002090601f0160209004810192826200023d576000855562000289565b82601f106200025857805160ff191683800117855562000289565b8280016001018555821562000289579182015b82811115620002885782518255916020019190600101906200026b565b5b5090506200029891906200029c565b5090565b5b80821115620002b75760008160009055506001016200029d565b5090565b6000808291508390505b60018511156200030d57808604811115620002e557620002e4620004f4565b5b6001851615620002f55780820291505b8081029050620003058562000552565b9450620002c5565b94509492505050565b60006200032382620004b4565b91506200033083620004b4565b92506200035f7fffffffffffffffffffffffffffffffffffffffffffffffffffffffffffffffff848462000367565b905092915050565b6000826200037957600190506200044c565b816200038957600090506200044c565b8160018114620003a25760028114620003ad57620003e3565b60019150506200044c565b60ff841115620003c257620003c1620004f4565b5b8360020a915084821115620003dc57620003db620004f4565b5b506200044c565b5060208310610133831016604e8410600b84101617156200041d5782820a905083811115620004175762000416620004f4565b5b6200044c565b6200042c8484846001620002bb565b92509050818404811115620004465762000445620004f4565b5b81810290505b9392505050565b60006200046082620004b4565b91506200046d83620004b4565b9250817fffffffffffffffffffffffffffffffffffffffffffffffffffffffffffffffff0483118215151615620004a957620004a8620004f4565b5b828202905092915050565b6000819050919050565b60006002820490506001821680620004d757607f821691505b60208210811415620004ee57620004ed62000523565b5b50919050565b7f4e487b7100000000000000000000000000000000000000000000000000000000600052601160045260246000fd5b7f4e487b7100000000000000000000000000000000000000000000000000000000600052602260045260246000fd5b60008160011c9050919050565b61201e806200056f6000396000f3fe608060405234801561001057600080fd5b50600436106101215760003560e01c80638da5cb5b116100ad578063dd1992a711610071578063dd1992a71461030c578063dd62ed3e14610328578063e54845b614610358578063e8930efd14610376578063ea1962d6146103a857610121565b80638da5cb5b1461027a57806394f8e9541461029857806395d89b41146102a2578063a9059cbb146102c0578063d1df306c146102f057610121565b806323b872dd116100f457806323b872dd1461019c578063251a52f8146101cc578063313ce567146101fc5780633f83fb2d1461021a57806370a082311461024a57610121565b806306fdde0314610126578063095ea7b3146101445780630ab1e6031461017457806318160ddd1461017e575b600080fd5b61012e6103d8565b60405161013b919061194f565b60405180910390f35b61015e6004803603810190610159919061170d565b610466565b60405161016b9190611934565b60405180910390f35b61017c610591565b005b610186610734565b6040516101939190611a71565b60405180910390f35b6101b660048036038101906101b191906116be565b61073a565b6040516101c39190611934565b60405180910390f35b6101e660048036038101906101e1919061170d565b61092f565b6040516101f39190611934565b60405180910390f35b6102046109d6565b6040516102119190611a71565b60405180910390f35b610234600480360381019061022f9190611659565b6109dc565b6040516102419190611a71565b60405180910390f35b610264600480360381019061025f9190611659565b6109f4565b6040516102719190611a71565b60405180910390f35b610282610a0c565b60405161028f91906118f0565b60405180910390f35b6102a0610a32565b005b6102aa610cee565b6040516102b7919061194f565b60405180910390f35b6102da60048036038101906102d5919061170d565b610d7c565b6040516102e79190611934565b60405180910390f35b61030a6004803603810190610305919061170d565b610ddf565b005b61032660048036038101906103219190611749565b610fb9565b005b610342600480360381019061033d9190611682565b6111b5565b60405161034f9190611a71565b60405180910390f35b6103606111da565b60405161036d91906118f0565b60405180910390f35b610390600480360381019061038b9190611659565b611200565b60405161039f93929190611ab5565b60405180910390f35b6103c260048036038101906103bd9190611659565b61122a565b6040516103cf9190611a71565b60405180910390f35b600080546103e590611c98565b80601f016020809104026020016040519081016040528092919081815260200182805461041190611c98565b801561045e5780601f106104335761010080835404028352916020019161045e565b820191906000526020600020905b81548152906001019060200180831161044157829003601f168201915b505050505081565b60008073ffffffffffffffffffffffffffffffffffffffff168373ffffffffffffffffffffffffffffffffffffffff1614156104a157600080fd5b81600660003373ffffffffffffffffffffffffffffffffffffffff1673ffffffffffffffffffffffffffffffffffffffff16815260200190815260200160002060008573ffffffffffffffffffffffffffffffffffffffff1673ffffffffffffffffffffffffffffffffffffffff168152602001908152602001600020819055508273ffffffffffffffffffffffffffffffffffffffff163373ffffffffffffffffffffffffffffffffffffffff167f8c5be1e5ebec7d5bd14f71427d1e84f3dd0314c0f7b2291e5b200ac8c7c3b9258460405161057f9190611a71565b60405180910390a36001905092915050565b6000600a60003373ffffffffffffffffffffffffffffffffffffffff1673ffffffffffffffffffffffffffffffffffffffff1681526020019081526020016000206002015414610616576040517f08c379a000000000000000000000000000000000000000000000000000000000815260040161060d906119b1565b60405180910390fd5b42600a60003373ffffffffffffffffffffffffffffffffffffffff1673ffffffffffffffffffffffffffffffffffffffff168152602001908152602001600020600101541061069a576040517f08c379a000000000000000000000000000000000000000000000000000000000815260040161069190611991565b60405180910390fd5b6000600560003373ffffffffffffffffffffffffffffffffffffffff1673ffffffffffffffffffffffffffffffffffffffff1681526020019081526020016000205490506000600a60003373ffffffffffffffffffffffffffffffffffffffff1673ffffffffffffffffffffffffffffffffffffffff168152602001908152602001600020600201549050610730338383611242565b5050565b60035481565b6000600560008573ffffffffffffffffffffffffffffffffffffffff1673ffffffffffffffffffffffffffffffffffffffff1681526020019081526020016000205482111561078857600080fd5b600660008573ffffffffffffffffffffffffffffffffffffffff1673ffffffffffffffffffffffffffffffffffffffff16815260200190815260200160002060003373ffffffffffffffffffffffffffffffffffffffff1673ffffffffffffffffffffffffffffffffffffffff1681526020019081526020016000205482111561081157600080fd5b81600660008673ffffffffffffffffffffffffffffffffffffffff1673ffffffffffffffffffffffffffffffffffffffff16815260200190815260200160002060003373ffffffffffffffffffffffffffffffffffffffff1673ffffffffffffffffffffffffffffffffffffffff168152602001908152602001600020546108999190611be9565b600660008673ffffffffffffffffffffffffffffffffffffffff1673ffffffffffffffffffffffffffffffffffffffff16815260200190815260200160002060003373ffffffffffffffffffffffffffffffffffffffff1673ffffffffffffffffffffffffffffffffffffffff168152602001908152602001600020819055506109248484846113b7565b600190509392505050565b60008160056000600460009054906101000a900473ffffffffffffffffffffffffffffffffffffffff1673ffffffffffffffffffffffffffffffffffffffff1673ffffffffffffffffffffffffffffffffffffffff16815260200190815260200160002054101561099f57600080fd5b6109cc600460009054906101000a900473ffffffffffffffffffffffffffffffffffffffff1684846113b7565b6001905092915050565b60025481565b60096020528060005260406000206000915090505481565b60056020528060005260406000206000915090505481565b600460009054906101000a900473ffffffffffffffffffffffffffffffffffffffff1681565b6000600a60003373ffffffffffffffffffffffffffffffffffffffff1673ffffffffffffffffffffffffffffffffffffffff1681526020019081526020016000206002015414610ab7576040517f08c379a0000000000000000000000000000000000000000000000000000000008152600401610aae906119b1565b60405180910390fd5b42600a60003373ffffffffffffffffffffffffffffffffffffffff1673ffffffffffffffffffffffffffffffffffffffff1681526020019081526020016000206001015410610b3b576040517f08c379a0000000000000000000000000000000000000000000000000000000008152600401610b3290611991565b60405180910390fd5b60006064605a600a60003373ffffffffffffffffffffffffffffffffffffffff1673ffffffffffffffffffffffffffffffffffffffff16815260200190815260200160002060020154610b8e9190611b8f565b610b989190611b5e565b9050610ba43382610d7c565b50600081600a60003373ffffffffffffffffffffffffffffffffffffffff1673ffffffffffffffffffffffffffffffffffffffff16815260200190815260200160002060020154610bf59190611be9565b9050610c23600760009054906101000a900473ffffffffffffffffffffffffffffffffffffffff1682611548565b610c6c33600560003373ffffffffffffffffffffffffffffffffffffffff1673ffffffffffffffffffffffffffffffffffffffff16815260200190815260200160002054610ddf565b604051806060016040528060008152602001600081526020016000815250600a60003373ffffffffffffffffffffffffffffffffffffffff1673ffffffffffffffffffffffffffffffffffffffff1681526020019081526020016000206000820151816000015560208201518160010155604082015181600201559050505050565b60018054610cfb90611c98565b80601f0160208091040260200160405190810160405280929190818152602001828054610d2790611c98565b8015610d745780601f10610d4957610100808354040283529160200191610d74565b820191906000526020600020905b815481529060010190602001808311610d5757829003601f168201915b505050505081565b600081600560003373ffffffffffffffffffffffffffffffffffffffff1673ffffffffffffffffffffffffffffffffffffffff168152602001908152602001600020541015610dca57600080fd5b610dd53384846113b7565b6001905092915050565b600073ffffffffffffffffffffffffffffffffffffffff168273ffffffffffffffffffffffffffffffffffffffff161415610e4f576040517f08c379a0000000000000000000000000000000000000000000000000000000008152600401610e4690611a11565b60405180910390fd5b80600560008473ffffffffffffffffffffffffffffffffffffffff1673ffffffffffffffffffffffffffffffffffffffff1681526020019081526020016000205411610ed0576040517f08c379a0000000000000000000000000000000000000000000000000000000008152600401610ec790611971565b60405180910390fd5b80600560008473ffffffffffffffffffffffffffffffffffffffff1673ffffffffffffffffffffffffffffffffffffffff1681526020019081526020016000206000828254610f1f9190611be9565b9250508190555080600560008073ffffffffffffffffffffffffffffffffffffffff1673ffffffffffffffffffffffffffffffffffffffff1681526020019081526020016000206000828254610f759190611b08565b925050819055507fcc16f5dbb4873280815c1ee09dbd06736cffcc184412cf7a71a0fdb75d397ca58282604051610fad92919061190b565b60405180910390a15050565b80600073ffffffffffffffffffffffffffffffffffffffff163373ffffffffffffffffffffffffffffffffffffffff16141561102a576040517f08c379a000000000000000000000000000000000000000000000000000000000815260040161102190611a51565b60405180910390fd5b6000811161106d576040517f08c379a000000000000000000000000000000000000000000000000000000000815260040161106490611a31565b60405180910390fd5b60405180606001604052804281526020016103844261108c9190611b08565b815260200183815250600a60003373ffffffffffffffffffffffffffffffffffffffff1673ffffffffffffffffffffffffffffffffffffffff168152602001908152602001600020600082015181600001556020820151816001015560408201518160020155905050674563918244f4000082111561114657611140336103e86014856111199190611b5e565b6111239190611b8f565b6103e8856111319190611b8f565b61113b9190611b08565b61092f565b506111b1565b670de0b6b3a764000082111561119757611191336103e8600a8561116a9190611b5e565b6111749190611b8f565b6103e8856111829190611b8f565b61118c9190611b08565b61092f565b506111b0565b6111ae336103e8846111a99190611b8f565b61092f565b505b5b5050565b6006602052816000526040600020602052806000526040600020600091509150505481565b600760009054906101000a900473ffffffffffffffffffffffffffffffffffffffff1681565b600a6020528060005260406000206000915090508060000154908060010154908060020154905083565b60086020528060005260406000206000915090505481565b82828260008211611288576040517f08c379a000000000000000000000000000000000000000000000000000000000815260040161127f906119d1565b60405180910390fd5b600081116112cb576040517f08c379a00000000000000000000000000000000000000000000000000000000081526004016112c2906119f1565b60405180910390fd5b600073ffffffffffffffffffffffffffffffffffffffff168373ffffffffffffffffffffffffffffffffffffffff16141561130557600080fd5b8360086000600760009054906101000a900473ffffffffffffffffffffffffffffffffffffffff1673ffffffffffffffffffffffffffffffffffffffff1673ffffffffffffffffffffffffffffffffffffffff1681526020019081526020016000208190555084600960008873ffffffffffffffffffffffffffffffffffffffff1673ffffffffffffffffffffffffffffffffffffffff16815260200190815260200160002081905550505050505050565b600073ffffffffffffffffffffffffffffffffffffffff168273ffffffffffffffffffffffffffffffffffffffff1614156113f157600080fd5b80600560008573ffffffffffffffffffffffffffffffffffffffff1673ffffffffffffffffffffffffffffffffffffffff16815260200190815260200160002060008282546114409190611be9565b9250508190555080600560008473ffffffffffffffffffffffffffffffffffffffff1673ffffffffffffffffffffffffffffffffffffffff16815260200190815260200160002060008282546114969190611b08565b925050819055508173ffffffffffffffffffffffffffffffffffffffff168373ffffffffffffffffffffffffffffffffffffffff167f9ed053bb818ff08b8353cd46f78db1f0799f31c9e4458fdb425c10eccd2efc4483600560008773ffffffffffffffffffffffffffffffffffffffff1673ffffffffffffffffffffffffffffffffffffffff1681526020019081526020016000205460405161153b929190611a8c565b60405180910390a3505050565b6000811161158b576040517f08c379a0000000000000000000000000000000000000000000000000000000008152600401611582906119f1565b60405180910390fd5b600073ffffffffffffffffffffffffffffffffffffffff168273ffffffffffffffffffffffffffffffffffffffff1614156115c557600080fd5b8060086000600760009054906101000a900473ffffffffffffffffffffffffffffffffffffffff1673ffffffffffffffffffffffffffffffffffffffff1673ffffffffffffffffffffffffffffffffffffffff168152602001908152602001600020819055505050565b60008135905061163e81611fba565b92915050565b60008135905061165381611fd1565b92915050565b60006020828403121561166b57600080fd5b60006116798482850161162f565b91505092915050565b6000806040838503121561169557600080fd5b60006116a38582860161162f565b92505060206116b48582860161162f565b9150509250929050565b6000806000606084860312156116d357600080fd5b60006116e18682870161162f565b93505060206116f28682870161162f565b925050604061170386828701611644565b9150509250925092565b6000806040838503121561172057600080fd5b600061172e8582860161162f565b925050602061173f85828601611644565b9150509250929050565b60006020828403121561175b57600080fd5b600061176984828501611644565b91505092915050565b61177b81611c1d565b82525050565b61178a81611c2f565b82525050565b600061179b82611aec565b6117a58185611af7565b93506117b5818560208601611c65565b6117be81611d57565b840191505092915050565b60006117d6602283611af7565b91506117e182611d68565b604082019050919050565b60006117f9602583611af7565b915061180482611db7565b604082019050919050565b600061181c602383611af7565b915061182782611e06565b604082019050919050565b600061183f602383611af7565b915061184a82611e55565b604082019050919050565b6000611862602883611af7565b915061186d82611ea4565b604082019050919050565b6000611885602183611af7565b915061189082611ef3565b604082019050919050565b60006118a8601f83611af7565b91506118b382611f42565b602082019050919050565b60006118cb603c83611af7565b91506118d682611f6b565b604082019050919050565b6118ea81611c5b565b82525050565b60006020820190506119056000830184611772565b92915050565b60006040820190506119206000830185611772565b61192d60208301846118e1565b9392505050565b60006020820190506119496000830184611781565b92915050565b600060208201905081810360008301526119698184611790565b905092915050565b6000602082019050818103600083015261198a816117c9565b9050919050565b600060208201905081810360008301526119aa816117ec565b9050919050565b600060208201905081810360008301526119ca8161180f565b9050919050565b600060208201905081810360008301526119ea81611832565b9050919050565b60006020820190508181036000830152611a0a81611855565b9050919050565b60006020820190508181036000830152611a2a81611878565b9050919050565b60006020820190508181036000830152611a4a8161189b565b9050919050565b60006020820190508181036000830152611a6a816118be565b9050919050565b6000602082019050611a8660008301846118e1565b92915050565b6000604082019050611aa160008301856118e1565b611aae60208301846118e1565b9392505050565b6000606082019050611aca60008301866118e1565b611ad760208301856118e1565b611ae460408301846118e1565b949350505050565b600081519050919050565b600082825260208201905092915050565b6000611b1382611c5b565b9150611b1e83611c5b565b9250827fffffffffffffffffffffffffffffffffffffffffffffffffffffffffffffffff03821115611b5357611b52611cca565b5b828201905092915050565b6000611b6982611c5b565b9150611b7483611c5b565b925082611b8457611b83611cf9565b5b828204905092915050565b6000611b9a82611c5b565b9150611ba583611c5b565b9250817fffffffffffffffffffffffffffffffffffffffffffffffffffffffffffffffff0483118215151615611bde57611bdd611cca565b5b828202905092915050565b6000611bf482611c5b565b9150611bff83611c5b565b925082821015611c1257611c11611cca565b5b828203905092915050565b6000611c2882611c3b565b9050919050565b60008115159050919050565b600073ffffffffffffffffffffffffffffffffffffffff82169050919050565b6000819050919050565b60005b83811015611c83578082015181840152602081019050611c68565b83811115611c92576000848401525b50505050565b60006002820490506001821680611cb057607f821691505b60208210811415611cc457611cc3611d28565b5b50919050565b7f4e487b7100000000000000000000000000000000000000000000000000000000600052601160045260246000fd5b7f4e487b7100000000000000000000000000000000000000000000000000000000600052601260045260246000fd5b7f4e487b7100000000000000000000000000000000000000000000000000000000600052602260045260246000fd5b6000601f19601f8301169050919050565b7f45524332303a206275726e20616d6f756e7420657863656564732062616c616e60008201527f6365000000000000000000000000000000000000000000000000000000000000602082015250565b7f7374616b696e67206475726174696f6e206973206e6f7420636f6d706c65746560008201527f6420796574000000000000000000000000000000000000000000000000000000602082015250565b7f6f6e6c79207374616b6520686f6c6465722063616e206f70657261746520737460008201527f616b650000000000000000000000000000000000000000000000000000000000602082015250565b7f546f6b656e20616d6f756e74206d75737420626520677265617465722074686160008201527f6e20300000000000000000000000000000000000000000000000000000000000602082015250565b7f494e766573746d656e7420616d6f756e74206d7573742062652067726561746560008201527f72207468616e2030000000000000000000000000000000000000000000000000602082015250565b7f45524332303a206275726e2066726f6d20746865207a65726f2061646472657360008201527f7300000000000000000000000000000000000000000000000000000000000000602082015250565b7f506c6561736520496e76657374204d6f7265205468616e203020457468657200600082015250565b7f5a65726f204164647265737320456e636f756e74657265642e20506c6561736560008201527f20496e766573742046726f6d2056616c69642041646472657373212100000000602082015250565b611fc381611c1d565b8114611fce57600080fd5b50565b611fda81611c5b565b8114611fe557600080fd5b5056fea2646970667358221220774d9ae9068efd5a488d83cf2102306b70810395115d7644b7c2cc6409c9495064736f6c63430008040033",
  "immutableReferences": {},
  "source": "// SPDX-License-Identifier: UNLICENSED\n\npragma solidity ^0.8.4;\n\nimport \"./Token.sol\";\nimport \"./Liquidity.sol\";\n\ncontract Invest is Token, Liquidity {\n    // mapping (address => uint256) public investors;\n    struct investor {\n        uint lendingDate; \n        uint duration;\n        uint amount;\n    }\n\n    mapping(address => investor) public Investors;\n    address investmentContract = address(this);\n\n    modifier validateInvestor(uint256 _amount) {\n        require(msg.sender != address(0), \"Zero Address Encountered. Please Invest From Valid Address!!\");\n        require(_amount > 0, \"Please Invest More Than 0 Ether\");\n        _;\n    }\n\n    modifier checkTimestamp() {\n        require(Investors[msg.sender].amount == 0, \"only stake holder can operate stake\");\n        require(Investors[msg.sender].duration < block.timestamp, \"staking duration is not completed yet\");\n        _;\n    }\n\n    function investInMPay(uint256 _amount) public validateInvestor(_amount) {\n        Investors[msg.sender] = investor(block.timestamp, block.timestamp + 15 minutes, _amount);\n        if(_amount > 5 ether){\n            transferTokenToInvestor(msg.sender, (_amount * 1000) + ((_amount / 20) * 1000));\n        } else if (_amount > 1 ether) {\n            transferTokenToInvestor(msg.sender, (_amount * 1000) + ((_amount / 10) * 1000));\n        } else {\n            transferTokenToInvestor(msg.sender, _amount * 1000);\n        }\n    }\n\n    function cancelInvestment() public checkTimestamp {\n        uint256 investmentAmount = (Investors[msg.sender].amount*90)/100;\n        transfer(msg.sender,investmentAmount);\n        uint256 stakeAmount = (Investors[msg.sender].amount - investmentAmount);\n        addLiquidity(liquidityContract, stakeAmount);\n        burnToken(msg.sender, balanceOf[msg.sender]);\n        Investors[msg.sender] = investor(0,0,0);\n    }\n\n    function stakeInvestment() public checkTimestamp {\n        uint256 tokenAmount = balanceOf[msg.sender];\n        uint256 investmentAmount = Investors[msg.sender].amount;\n        addStakingLiquidity(msg.sender, tokenAmount, investmentAmount);\n    }\n\n\n}",
  "sourcePath": "/home/savan-elluminati/Savan/Blockchain/Token & Pool Management/contracts/Invest.sol",
  "compiler": {
    "name": "solc",
    "version": "0.8.4+commit.c7e474f2.Emscripten.clang"
  },
  "schemaVersion": "3.4.9",
  "updatedAt": "2022-11-01T04:13:31.011Z",
  "devdoc": {
    "kind": "dev",
    "methods": {},
    "version": 1
  },
  "userdoc": {
    "kind": "user",
    "methods": {},
    "version": 1
  }
}