{
  "contractName": "Invest",
  "abi": [
    {
      "anonymous": false,
      "inputs": [
        {
          "indexed": true,
          "internalType": "address",
          "name": "owner",
          "type": "address"
        },
        {
          "indexed": true,
          "internalType": "address",
          "name": "spender",
          "type": "address"
        },
        {
          "indexed": false,
          "internalType": "uint256",
          "name": "value",
          "type": "uint256"
        }
      ],
      "name": "Approval",
      "type": "event"
    },
    {
      "anonymous": false,
      "inputs": [
        {
          "indexed": false,
          "internalType": "address",
          "name": "from",
          "type": "address"
        },
        {
          "indexed": false,
          "internalType": "uint256",
          "name": "_amount",
          "type": "uint256"
        }
      ],
      "name": "Burn",
      "type": "event"
    },
    {
      "anonymous": false,
      "inputs": [
        {
          "indexed": true,
          "internalType": "address",
          "name": "from",
          "type": "address"
        },
        {
          "indexed": true,
          "internalType": "address",
          "name": "to",
          "type": "address"
        },
        {
          "indexed": false,
          "internalType": "uint256",
          "name": "_value",
          "type": "uint256"
        },
        {
          "indexed": false,
          "internalType": "uint256",
          "name": "balance",
          "type": "uint256"
        }
      ],
      "name": "Transfer",
      "type": "event"
    },
    {
      "inputs": [
        {
          "internalType": "address",
          "name": "",
          "type": "address"
        }
      ],
      "name": "Investors",
      "outputs": [
        {
          "internalType": "uint256",
          "name": "lendingDate",
          "type": "uint256"
        },
        {
          "internalType": "uint256",
          "name": "duration",
          "type": "uint256"
        },
        {
          "internalType": "uint256",
          "name": "amount",
          "type": "uint256"
        }
      ],
      "stateMutability": "view",
      "type": "function"
    },
    {
      "inputs": [
        {
          "internalType": "address",
          "name": "",
          "type": "address"
        },
        {
          "internalType": "address",
          "name": "",
          "type": "address"
        }
      ],
      "name": "allowance",
      "outputs": [
        {
          "internalType": "uint256",
          "name": "",
          "type": "uint256"
        }
      ],
      "stateMutability": "view",
      "type": "function"
    },
    {
      "inputs": [
        {
          "internalType": "address",
          "name": "_spender",
          "type": "address"
        },
        {
          "internalType": "uint256",
          "name": "_value",
          "type": "uint256"
        }
      ],
      "name": "approve",
      "outputs": [
        {
          "internalType": "bool",
          "name": "success",
          "type": "bool"
        }
      ],
      "stateMutability": "nonpayable",
      "type": "function"
    },
    {
      "inputs": [
        {
          "internalType": "address",
          "name": "",
          "type": "address"
        }
      ],
      "name": "balanceOf",
      "outputs": [
        {
          "internalType": "uint256",
          "name": "",
          "type": "uint256"
        }
      ],
      "stateMutability": "view",
      "type": "function"
    },
    {
      "inputs": [
        {
          "internalType": "address",
          "name": "_user",
          "type": "address"
        },
        {
          "internalType": "uint256",
          "name": "_amount",
          "type": "uint256"
        }
      ],
      "name": "burnToken",
      "outputs": [],
      "stateMutability": "nonpayable",
      "type": "function"
    },
    {
      "inputs": [],
      "name": "decimals",
      "outputs": [
        {
          "internalType": "uint256",
          "name": "",
          "type": "uint256"
        }
      ],
      "stateMutability": "view",
      "type": "function"
    },
    {
      "inputs": [],
      "name": "liquidityContract",
      "outputs": [
        {
          "internalType": "address",
          "name": "",
          "type": "address"
        }
      ],
      "stateMutability": "view",
      "type": "function"
    },
    {
      "inputs": [
        {
          "internalType": "address",
          "name": "",
          "type": "address"
        }
      ],
      "name": "liquidityInvestmentBalance",
      "outputs": [
        {
          "internalType": "uint256",
          "name": "",
          "type": "uint256"
        }
      ],
      "stateMutability": "view",
      "type": "function"
    },
    {
      "inputs": [
        {
          "internalType": "address",
          "name": "",
          "type": "address"
        }
      ],
      "name": "liquidityTokenBalance",
      "outputs": [
        {
          "internalType": "uint256",
          "name": "",
          "type": "uint256"
        }
      ],
      "stateMutability": "view",
      "type": "function"
    },
    {
      "inputs": [],
      "name": "name",
      "outputs": [
        {
          "internalType": "string",
          "name": "",
          "type": "string"
        }
      ],
      "stateMutability": "view",
      "type": "function"
    },
    {
      "inputs": [],
      "name": "owner",
      "outputs": [
        {
          "internalType": "address",
          "name": "",
          "type": "address"
        }
      ],
      "stateMutability": "view",
      "type": "function"
    },
    {
      "inputs": [],
      "name": "symbol",
      "outputs": [
        {
          "internalType": "string",
          "name": "",
          "type": "string"
        }
      ],
      "stateMutability": "view",
      "type": "function"
    },
    {
      "inputs": [],
      "name": "totalSupply",
      "outputs": [
        {
          "internalType": "uint256",
          "name": "",
          "type": "uint256"
        }
      ],
      "stateMutability": "view",
      "type": "function"
    },
    {
      "inputs": [
        {
          "internalType": "address",
          "name": "_to",
          "type": "address"
        },
        {
          "internalType": "uint256",
          "name": "_value",
          "type": "uint256"
        }
      ],
      "name": "transfer",
      "outputs": [
        {
          "internalType": "bool",
          "name": "success",
          "type": "bool"
        }
      ],
      "stateMutability": "nonpayable",
      "type": "function"
    },
    {
      "inputs": [
        {
          "internalType": "address",
          "name": "_from",
          "type": "address"
        },
        {
          "internalType": "address",
          "name": "_to",
          "type": "address"
        },
        {
          "internalType": "uint256",
          "name": "_value",
          "type": "uint256"
        }
      ],
      "name": "transferFrom",
      "outputs": [
        {
          "internalType": "bool",
          "name": "success",
          "type": "bool"
        }
      ],
      "stateMutability": "nonpayable",
      "type": "function"
    },
    {
      "inputs": [
        {
          "internalType": "address",
          "name": "_to",
          "type": "address"
        },
        {
          "internalType": "uint256",
          "name": "_value",
          "type": "uint256"
        }
      ],
      "name": "transferTokenToInvestor",
      "outputs": [
        {
          "internalType": "bool",
          "name": "success",
          "type": "bool"
        }
      ],
      "stateMutability": "nonpayable",
      "type": "function"
    },
    {
      "inputs": [
        {
          "internalType": "uint256",
          "name": "_amount",
          "type": "uint256"
        }
      ],
      "name": "investInMPay",
      "outputs": [],
      "stateMutability": "nonpayable",
      "type": "function"
    },
    {
      "inputs": [],
      "name": "cancelInvestment",
      "outputs": [],
      "stateMutability": "nonpayable",
      "type": "function"
    },
    {
      "inputs": [],
      "name": "stakeInvestment",
      "outputs": [],
      "stateMutability": "nonpayable",
      "type": "function"
    }
  ],
  "bytecode": "0x60806040526040518060400160405280600d81526020017f4d696e6470617920546f6b656e0000000000000000000000000000000000000081525060009080519060200190620000519291906200020b565b506040518060400160405280600781526020017f4d494e4450415900000000000000000000000000000000000000000000000000815250600190805190602001906200009f9291906200020b565b50601260025530600760006101000a81548173ffffffffffffffffffffffffffffffffffffffff021916908373ffffffffffffffffffffffffffffffffffffffff16021790555030600b60006101000a81548173ffffffffffffffffffffffffffffffffffffffff021916908373ffffffffffffffffffffffffffffffffffffffff1602179055503480156200013457600080fd5b5033600460006101000a81548173ffffffffffffffffffffffffffffffffffffffff021916908373ffffffffffffffffffffffffffffffffffffffff160217905550600254600a62000187919062000316565b620f424062000197919062000453565b60038190555060035460056000600460009054906101000a900473ffffffffffffffffffffffffffffffffffffffff1673ffffffffffffffffffffffffffffffffffffffff1673ffffffffffffffffffffffffffffffffffffffff168152602001908152602001600020819055506200055f565b8280546200021990620004be565b90600052602060002090601f0160209004810192826200023d576000855562000289565b82601f106200025857805160ff191683800117855562000289565b8280016001018555821562000289579182015b82811115620002885782518255916020019190600101906200026b565b5b5090506200029891906200029c565b5090565b5b80821115620002b75760008160009055506001016200029d565b5090565b6000808291508390505b60018511156200030d57808604811115620002e557620002e4620004f4565b5b6001851615620002f55780820291505b8081029050620003058562000552565b9450620002c5565b94509492505050565b60006200032382620004b4565b91506200033083620004b4565b92506200035f7fffffffffffffffffffffffffffffffffffffffffffffffffffffffffffffffff848462000367565b905092915050565b6000826200037957600190506200044c565b816200038957600090506200044c565b8160018114620003a25760028114620003ad57620003e3565b60019150506200044c565b60ff841115620003c257620003c1620004f4565b5b8360020a915084821115620003dc57620003db620004f4565b5b506200044c565b5060208310610133831016604e8410600b84101617156200041d5782820a905083811115620004175762000416620004f4565b5b6200044c565b6200042c8484846001620002bb565b92509050818404811115620004465762000445620004f4565b5b81810290505b9392505050565b60006200046082620004b4565b91506200046d83620004b4565b9250817fffffffffffffffffffffffffffffffffffffffffffffffffffffffffffffffff0483118215151615620004a957620004a8620004f4565b5b828202905092915050565b6000819050919050565b60006002820490506001821680620004d757607f821691505b60208210811415620004ee57620004ed62000523565b5b50919050565b7f4e487b7100000000000000000000000000000000000000000000000000000000600052601160045260246000fd5b7f4e487b7100000000000000000000000000000000000000000000000000000000600052602260045260246000fd5b60008160011c9050919050565b611e84806200056f6000396000f3fe608060405234801561001057600080fd5b50600436106101215760003560e01c80638da5cb5b116100ad578063dd1992a711610071578063dd1992a71461030c578063dd62ed3e14610328578063e54845b614610358578063e8930efd14610376578063ea1962d6146103a857610121565b80638da5cb5b1461027a57806394f8e9541461029857806395d89b41146102a2578063a9059cbb146102c0578063d1df306c146102f057610121565b806323b872dd116100f457806323b872dd1461019c578063251a52f8146101cc578063313ce567146101fc5780633f83fb2d1461021a57806370a082311461024a57610121565b806306fdde0314610126578063095ea7b3146101445780630ab1e6031461017457806318160ddd1461017e575b600080fd5b61012e6103d8565b60405161013b9190611824565b60405180910390f35b61015e60048036038101906101599190611605565b610466565b60405161016b9190611809565b60405180910390f35b61017c610591565b005b6101866106b0565b6040516101939190611926565b60405180910390f35b6101b660048036038101906101b191906115b6565b6106b6565b6040516101c39190611809565b60405180910390f35b6101e660048036038101906101e19190611605565b6108ab565b6040516101f39190611809565b60405180910390f35b610204610952565b6040516102119190611926565b60405180910390f35b610234600480360381019061022f9190611551565b610958565b6040516102419190611926565b60405180910390f35b610264600480360381019061025f9190611551565b610970565b6040516102719190611926565b60405180910390f35b610282610988565b60405161028f91906117c5565b60405180910390f35b6102a06109ae565b005b6102aa610be6565b6040516102b79190611824565b60405180910390f35b6102da60048036038101906102d59190611605565b610c74565b6040516102e79190611809565b60405180910390f35b61030a60048036038101906103059190611605565b610cd7565b005b61032660048036038101906103219190611641565b610eb1565b005b610342600480360381019061033d919061157a565b6110ad565b60405161034f9190611926565b60405180910390f35b6103606110d2565b60405161036d91906117c5565b60405180910390f35b610390600480360381019061038b9190611551565b6110f8565b60405161039f9392919061196a565b60405180910390f35b6103c260048036038101906103bd9190611551565b611122565b6040516103cf9190611926565b60405180910390f35b600080546103e590611b4d565b80601f016020809104026020016040519081016040528092919081815260200182805461041190611b4d565b801561045e5780601f106104335761010080835404028352916020019161045e565b820191906000526020600020905b81548152906001019060200180831161044157829003601f168201915b505050505081565b60008073ffffffffffffffffffffffffffffffffffffffff168373ffffffffffffffffffffffffffffffffffffffff1614156104a157600080fd5b81600660003373ffffffffffffffffffffffffffffffffffffffff1673ffffffffffffffffffffffffffffffffffffffff16815260200190815260200160002060008573ffffffffffffffffffffffffffffffffffffffff1673ffffffffffffffffffffffffffffffffffffffff168152602001908152602001600020819055508273ffffffffffffffffffffffffffffffffffffffff163373ffffffffffffffffffffffffffffffffffffffff167f8c5be1e5ebec7d5bd14f71427d1e84f3dd0314c0f7b2291e5b200ac8c7c3b9258460405161057f9190611926565b60405180910390a36001905092915050565b6000600a60003373ffffffffffffffffffffffffffffffffffffffff1673ffffffffffffffffffffffffffffffffffffffff1681526020019081526020016000206002015414610616576040517f08c379a000000000000000000000000000000000000000000000000000000000815260040161060d90611866565b60405180910390fd5b6000600560003373ffffffffffffffffffffffffffffffffffffffff1673ffffffffffffffffffffffffffffffffffffffff1681526020019081526020016000205490506000600a60003373ffffffffffffffffffffffffffffffffffffffff1673ffffffffffffffffffffffffffffffffffffffff1681526020019081526020016000206002015490506106ac33838361113a565b5050565b60035481565b6000600560008573ffffffffffffffffffffffffffffffffffffffff1673ffffffffffffffffffffffffffffffffffffffff1681526020019081526020016000205482111561070457600080fd5b600660008573ffffffffffffffffffffffffffffffffffffffff1673ffffffffffffffffffffffffffffffffffffffff16815260200190815260200160002060003373ffffffffffffffffffffffffffffffffffffffff1673ffffffffffffffffffffffffffffffffffffffff1681526020019081526020016000205482111561078d57600080fd5b81600660008673ffffffffffffffffffffffffffffffffffffffff1673ffffffffffffffffffffffffffffffffffffffff16815260200190815260200160002060003373ffffffffffffffffffffffffffffffffffffffff1673ffffffffffffffffffffffffffffffffffffffff168152602001908152602001600020546108159190611a9e565b600660008673ffffffffffffffffffffffffffffffffffffffff1673ffffffffffffffffffffffffffffffffffffffff16815260200190815260200160002060003373ffffffffffffffffffffffffffffffffffffffff1673ffffffffffffffffffffffffffffffffffffffff168152602001908152602001600020819055506108a08484846112af565b600190509392505050565b60008160056000600460009054906101000a900473ffffffffffffffffffffffffffffffffffffffff1673ffffffffffffffffffffffffffffffffffffffff1673ffffffffffffffffffffffffffffffffffffffff16815260200190815260200160002054101561091b57600080fd5b610948600460009054906101000a900473ffffffffffffffffffffffffffffffffffffffff1684846112af565b6001905092915050565b60025481565b60096020528060005260406000206000915090505481565b60056020528060005260406000206000915090505481565b600460009054906101000a900473ffffffffffffffffffffffffffffffffffffffff1681565b6000600a60003373ffffffffffffffffffffffffffffffffffffffff1673ffffffffffffffffffffffffffffffffffffffff1681526020019081526020016000206002015414610a33576040517f08c379a0000000000000000000000000000000000000000000000000000000008152600401610a2a90611866565b60405180910390fd5b60006064605a600a60003373ffffffffffffffffffffffffffffffffffffffff1673ffffffffffffffffffffffffffffffffffffffff16815260200190815260200160002060020154610a869190611a44565b610a909190611a13565b9050610a9c3382610c74565b50600081600a60003373ffffffffffffffffffffffffffffffffffffffff1673ffffffffffffffffffffffffffffffffffffffff16815260200190815260200160002060020154610aed9190611a9e565b9050610b1b600760009054906101000a900473ffffffffffffffffffffffffffffffffffffffff1682611440565b610b6433600560003373ffffffffffffffffffffffffffffffffffffffff1673ffffffffffffffffffffffffffffffffffffffff16815260200190815260200160002054610cd7565b604051806060016040528060008152602001600081526020016000815250600a60003373ffffffffffffffffffffffffffffffffffffffff1673ffffffffffffffffffffffffffffffffffffffff1681526020019081526020016000206000820151816000015560208201518160010155604082015181600201559050505050565b60018054610bf390611b4d565b80601f0160208091040260200160405190810160405280929190818152602001828054610c1f90611b4d565b8015610c6c5780601f10610c4157610100808354040283529160200191610c6c565b820191906000526020600020905b815481529060010190602001808311610c4f57829003601f168201915b505050505081565b600081600560003373ffffffffffffffffffffffffffffffffffffffff1673ffffffffffffffffffffffffffffffffffffffff168152602001908152602001600020541015610cc257600080fd5b610ccd3384846112af565b6001905092915050565b600073ffffffffffffffffffffffffffffffffffffffff168273ffffffffffffffffffffffffffffffffffffffff161415610d47576040517f08c379a0000000000000000000000000000000000000000000000000000000008152600401610d3e906118c6565b60405180910390fd5b80600560008473ffffffffffffffffffffffffffffffffffffffff1673ffffffffffffffffffffffffffffffffffffffff1681526020019081526020016000205411610dc8576040517f08c379a0000000000000000000000000000000000000000000000000000000008152600401610dbf90611846565b60405180910390fd5b80600560008473ffffffffffffffffffffffffffffffffffffffff1673ffffffffffffffffffffffffffffffffffffffff1681526020019081526020016000206000828254610e179190611a9e565b9250508190555080600560008073ffffffffffffffffffffffffffffffffffffffff1673ffffffffffffffffffffffffffffffffffffffff1681526020019081526020016000206000828254610e6d91906119bd565b925050819055507fcc16f5dbb4873280815c1ee09dbd06736cffcc184412cf7a71a0fdb75d397ca58282604051610ea59291906117e0565b60405180910390a15050565b80600073ffffffffffffffffffffffffffffffffffffffff163373ffffffffffffffffffffffffffffffffffffffff161415610f22576040517f08c379a0000000000000000000000000000000000000000000000000000000008152600401610f1990611906565b60405180910390fd5b60008111610f65576040517f08c379a0000000000000000000000000000000000000000000000000000000008152600401610f5c906118e6565b60405180910390fd5b604051806060016040528042815260200161038442610f8491906119bd565b815260200183815250600a60003373ffffffffffffffffffffffffffffffffffffffff1673ffffffffffffffffffffffffffffffffffffffff168152602001908152602001600020600082015181600001556020820151816001015560408201518160020155905050674563918244f4000082111561103e57611038336103e86014856110119190611a13565b61101b9190611a44565b6103e8856110299190611a44565b61103391906119bd565b6108ab565b506110a9565b670de0b6b3a764000082111561108f57611089336103e8600a856110629190611a13565b61106c9190611a44565b6103e88561107a9190611a44565b61108491906119bd565b6108ab565b506110a8565b6110a6336103e8846110a19190611a44565b6108ab565b505b5b5050565b6006602052816000526040600020602052806000526040600020600091509150505481565b600760009054906101000a900473ffffffffffffffffffffffffffffffffffffffff1681565b600a6020528060005260406000206000915090508060000154908060010154908060020154905083565b60086020528060005260406000206000915090505481565b82828260008211611180576040517f08c379a000000000000000000000000000000000000000000000000000000000815260040161117790611886565b60405180910390fd5b600081116111c3576040517f08c379a00000000000000000000000000000000000000000000000000000000081526004016111ba906118a6565b60405180910390fd5b600073ffffffffffffffffffffffffffffffffffffffff168373ffffffffffffffffffffffffffffffffffffffff1614156111fd57600080fd5b8360086000600760009054906101000a900473ffffffffffffffffffffffffffffffffffffffff1673ffffffffffffffffffffffffffffffffffffffff1673ffffffffffffffffffffffffffffffffffffffff1681526020019081526020016000208190555084600960008873ffffffffffffffffffffffffffffffffffffffff1673ffffffffffffffffffffffffffffffffffffffff16815260200190815260200160002081905550505050505050565b600073ffffffffffffffffffffffffffffffffffffffff168273ffffffffffffffffffffffffffffffffffffffff1614156112e957600080fd5b80600560008573ffffffffffffffffffffffffffffffffffffffff1673ffffffffffffffffffffffffffffffffffffffff16815260200190815260200160002060008282546113389190611a9e565b9250508190555080600560008473ffffffffffffffffffffffffffffffffffffffff1673ffffffffffffffffffffffffffffffffffffffff168152602001908152602001600020600082825461138e91906119bd565b925050819055508173ffffffffffffffffffffffffffffffffffffffff168373ffffffffffffffffffffffffffffffffffffffff167f9ed053bb818ff08b8353cd46f78db1f0799f31c9e4458fdb425c10eccd2efc4483600560008773ffffffffffffffffffffffffffffffffffffffff1673ffffffffffffffffffffffffffffffffffffffff16815260200190815260200160002054604051611433929190611941565b60405180910390a3505050565b60008111611483576040517f08c379a000000000000000000000000000000000000000000000000000000000815260040161147a906118a6565b60405180910390fd5b600073ffffffffffffffffffffffffffffffffffffffff168273ffffffffffffffffffffffffffffffffffffffff1614156114bd57600080fd5b8060086000600760009054906101000a900473ffffffffffffffffffffffffffffffffffffffff1673ffffffffffffffffffffffffffffffffffffffff1673ffffffffffffffffffffffffffffffffffffffff168152602001908152602001600020819055505050565b60008135905061153681611e20565b92915050565b60008135905061154b81611e37565b92915050565b60006020828403121561156357600080fd5b600061157184828501611527565b91505092915050565b6000806040838503121561158d57600080fd5b600061159b85828601611527565b92505060206115ac85828601611527565b9150509250929050565b6000806000606084860312156115cb57600080fd5b60006115d986828701611527565b93505060206115ea86828701611527565b92505060406115fb8682870161153c565b9150509250925092565b6000806040838503121561161857600080fd5b600061162685828601611527565b92505060206116378582860161153c565b9150509250929050565b60006020828403121561165357600080fd5b60006116618482850161153c565b91505092915050565b61167381611ad2565b82525050565b61168281611ae4565b82525050565b6000611693826119a1565b61169d81856119ac565b93506116ad818560208601611b1a565b6116b681611c0c565b840191505092915050565b60006116ce6022836119ac565b91506116d982611c1d565b604082019050919050565b60006116f16023836119ac565b91506116fc82611c6c565b604082019050919050565b60006117146023836119ac565b915061171f82611cbb565b604082019050919050565b60006117376028836119ac565b915061174282611d0a565b604082019050919050565b600061175a6021836119ac565b915061176582611d59565b604082019050919050565b600061177d601f836119ac565b915061178882611da8565b602082019050919050565b60006117a0603c836119ac565b91506117ab82611dd1565b604082019050919050565b6117bf81611b10565b82525050565b60006020820190506117da600083018461166a565b92915050565b60006040820190506117f5600083018561166a565b61180260208301846117b6565b9392505050565b600060208201905061181e6000830184611679565b92915050565b6000602082019050818103600083015261183e8184611688565b905092915050565b6000602082019050818103600083015261185f816116c1565b9050919050565b6000602082019050818103600083015261187f816116e4565b9050919050565b6000602082019050818103600083015261189f81611707565b9050919050565b600060208201905081810360008301526118bf8161172a565b9050919050565b600060208201905081810360008301526118df8161174d565b9050919050565b600060208201905081810360008301526118ff81611770565b9050919050565b6000602082019050818103600083015261191f81611793565b9050919050565b600060208201905061193b60008301846117b6565b92915050565b600060408201905061195660008301856117b6565b61196360208301846117b6565b9392505050565b600060608201905061197f60008301866117b6565b61198c60208301856117b6565b61199960408301846117b6565b949350505050565b600081519050919050565b600082825260208201905092915050565b60006119c882611b10565b91506119d383611b10565b9250827fffffffffffffffffffffffffffffffffffffffffffffffffffffffffffffffff03821115611a0857611a07611b7f565b5b828201905092915050565b6000611a1e82611b10565b9150611a2983611b10565b925082611a3957611a38611bae565b5b828204905092915050565b6000611a4f82611b10565b9150611a5a83611b10565b9250817fffffffffffffffffffffffffffffffffffffffffffffffffffffffffffffffff0483118215151615611a9357611a92611b7f565b5b828202905092915050565b6000611aa982611b10565b9150611ab483611b10565b925082821015611ac757611ac6611b7f565b5b828203905092915050565b6000611add82611af0565b9050919050565b60008115159050919050565b600073ffffffffffffffffffffffffffffffffffffffff82169050919050565b6000819050919050565b60005b83811015611b38578082015181840152602081019050611b1d565b83811115611b47576000848401525b50505050565b60006002820490506001821680611b6557607f821691505b60208210811415611b7957611b78611bdd565b5b50919050565b7f4e487b7100000000000000000000000000000000000000000000000000000000600052601160045260246000fd5b7f4e487b7100000000000000000000000000000000000000000000000000000000600052601260045260246000fd5b7f4e487b7100000000000000000000000000000000000000000000000000000000600052602260045260246000fd5b6000601f19601f8301169050919050565b7f45524332303a206275726e20616d6f756e7420657863656564732062616c616e60008201527f6365000000000000000000000000000000000000000000000000000000000000602082015250565b7f6f6e6c79207374616b6520686f6c6465722063616e206f70657261746520737460008201527f616b650000000000000000000000000000000000000000000000000000000000602082015250565b7f546f6b656e20616d6f756e74206d75737420626520677265617465722074686160008201527f6e20300000000000000000000000000000000000000000000000000000000000602082015250565b7f494e766573746d656e7420616d6f756e74206d7573742062652067726561746560008201527f72207468616e2030000000000000000000000000000000000000000000000000602082015250565b7f45524332303a206275726e2066726f6d20746865207a65726f2061646472657360008201527f7300000000000000000000000000000000000000000000000000000000000000602082015250565b7f506c6561736520496e76657374204d6f7265205468616e203020457468657200600082015250565b7f5a65726f204164647265737320456e636f756e74657265642e20506c6561736560008201527f20496e766573742046726f6d2056616c69642041646472657373212100000000602082015250565b611e2981611ad2565b8114611e3457600080fd5b50565b611e4081611b10565b8114611e4b57600080fd5b5056fea26469706673582212207a217566d92b1374afb78294c8cfd409469dbeb4c1e8e72f57dda78fbc94718c64736f6c63430008040033",
  "immutableReferences": {},
  "source": "// SPDX-License-Identifier: UNLICENSED\n\npragma solidity ^0.8.4;\n\nimport \"./Token.sol\";\nimport \"./Liquidity.sol\";\n\ncontract Invest is Token, Liquidity {\n    // mapping (address => uint256) public investors;\n    struct investor {\n        uint lendingDate; \n        uint duration;\n        uint amount;\n    }\n\n    mapping(address => investor) public Investors;\n    address investmentContract = address(this);\n\n    modifier validateInvestor(uint256 _amount) {\n        require(msg.sender != address(0), \"Zero Address Encountered. Please Invest From Valid Address!!\");\n        require(_amount > 0, \"Please Invest More Than 0 Ether\");\n        _;\n    }\n\n    modifier checkTimestamp() {\n        require(Investors[msg.sender].amount == 0, \"only stake holder can operate stake\");\n        _;\n    }\n\n    function investInMPay(uint256 _amount) public validateInvestor(_amount) {\n        Investors[msg.sender] = investor(block.timestamp, block.timestamp + 15 minutes, _amount);\n        if(_amount > 5 ether){\n            transferTokenToInvestor(msg.sender, (_amount * 1000) + ((_amount / 20) * 1000));\n        } else if (_amount > 1 ether) {\n            transferTokenToInvestor(msg.sender, (_amount * 1000) + ((_amount / 10) * 1000));\n        } else {\n            transferTokenToInvestor(msg.sender, _amount * 1000);\n        }\n    }\n\n    function cancelInvestment() public checkTimestamp {\n        uint256 investmentAmount = (Investors[msg.sender].amount*90)/100;\n        transfer(msg.sender,investmentAmount);\n        uint256 stakeAmount = (Investors[msg.sender].amount - investmentAmount);\n        addLiquidity(liquidityContract, stakeAmount);\n        burnToken(msg.sender, balanceOf[msg.sender]);\n        Investors[msg.sender] = investor(0,0,0);\n    }\n\n    function stakeInvestment() public checkTimestamp {\n        uint256 tokenAmount = balanceOf[msg.sender];\n        uint256 investmentAmount = Investors[msg.sender].amount;\n        addStakingLiquidity(msg.sender, tokenAmount, investmentAmount);\n    }\n\n\n}",
  "sourcePath": "/home/savan-elluminati/Savan/Blockchain/Token & Pool Management/contracts/Invest.sol",
  "compiler": {
    "name": "solc",
    "version": "0.8.4+commit.c7e474f2.Emscripten.clang"
  },
  "schemaVersion": "3.4.9",
  "updatedAt": "2022-10-31T07:05:12.822Z",
  "devdoc": {
    "kind": "dev",
    "methods": {},
    "version": 1
  },
  "userdoc": {
    "kind": "user",
    "methods": {},
    "version": 1
  }
}