{
  "contractName": "Liquidity",
  "abi": [
    {
      "anonymous": false,
      "inputs": [
        {
          "indexed": true,
          "internalType": "address",
          "name": "owner",
          "type": "address"
        },
        {
          "indexed": true,
          "internalType": "address",
          "name": "spender",
          "type": "address"
        },
        {
          "indexed": false,
          "internalType": "uint256",
          "name": "value",
          "type": "uint256"
        }
      ],
      "name": "Approval",
      "type": "event"
    },
    {
      "anonymous": false,
      "inputs": [
        {
          "indexed": false,
          "internalType": "address",
          "name": "from",
          "type": "address"
        },
        {
          "indexed": false,
          "internalType": "uint256",
          "name": "_amount",
          "type": "uint256"
        }
      ],
      "name": "Burn",
      "type": "event"
    },
    {
      "anonymous": false,
      "inputs": [
        {
          "indexed": true,
          "internalType": "address",
          "name": "from",
          "type": "address"
        },
        {
          "indexed": true,
          "internalType": "address",
          "name": "to",
          "type": "address"
        },
        {
          "indexed": false,
          "internalType": "uint256",
          "name": "_value",
          "type": "uint256"
        },
        {
          "indexed": false,
          "internalType": "uint256",
          "name": "balance",
          "type": "uint256"
        }
      ],
      "name": "Transfer",
      "type": "event"
    },
    {
      "inputs": [
        {
          "internalType": "address",
          "name": "",
          "type": "address"
        },
        {
          "internalType": "address",
          "name": "",
          "type": "address"
        }
      ],
      "name": "allowance",
      "outputs": [
        {
          "internalType": "uint256",
          "name": "",
          "type": "uint256"
        }
      ],
      "stateMutability": "view",
      "type": "function"
    },
    {
      "inputs": [
        {
          "internalType": "address",
          "name": "_spender",
          "type": "address"
        },
        {
          "internalType": "uint256",
          "name": "_value",
          "type": "uint256"
        }
      ],
      "name": "approve",
      "outputs": [
        {
          "internalType": "bool",
          "name": "success",
          "type": "bool"
        }
      ],
      "stateMutability": "nonpayable",
      "type": "function"
    },
    {
      "inputs": [
        {
          "internalType": "address",
          "name": "",
          "type": "address"
        }
      ],
      "name": "balanceOf",
      "outputs": [
        {
          "internalType": "uint256",
          "name": "",
          "type": "uint256"
        }
      ],
      "stateMutability": "view",
      "type": "function"
    },
    {
      "inputs": [
        {
          "internalType": "address",
          "name": "_user",
          "type": "address"
        },
        {
          "internalType": "uint256",
          "name": "_amount",
          "type": "uint256"
        }
      ],
      "name": "burnToken",
      "outputs": [],
      "stateMutability": "nonpayable",
      "type": "function"
    },
    {
      "inputs": [],
      "name": "decimals",
      "outputs": [
        {
          "internalType": "uint256",
          "name": "",
          "type": "uint256"
        }
      ],
      "stateMutability": "view",
      "type": "function"
    },
    {
      "inputs": [],
      "name": "liquidityContract",
      "outputs": [
        {
          "internalType": "address",
          "name": "",
          "type": "address"
        }
      ],
      "stateMutability": "view",
      "type": "function"
    },
    {
      "inputs": [
        {
          "internalType": "address",
          "name": "",
          "type": "address"
        }
      ],
      "name": "liquidityInvestmentBalance",
      "outputs": [
        {
          "internalType": "uint256",
          "name": "",
          "type": "uint256"
        }
      ],
      "stateMutability": "view",
      "type": "function"
    },
    {
      "inputs": [
        {
          "internalType": "address",
          "name": "",
          "type": "address"
        }
      ],
      "name": "liquidityTokenBalance",
      "outputs": [
        {
          "internalType": "uint256",
          "name": "",
          "type": "uint256"
        }
      ],
      "stateMutability": "view",
      "type": "function"
    },
    {
      "inputs": [],
      "name": "name",
      "outputs": [
        {
          "internalType": "string",
          "name": "",
          "type": "string"
        }
      ],
      "stateMutability": "view",
      "type": "function"
    },
    {
      "inputs": [],
      "name": "owner",
      "outputs": [
        {
          "internalType": "address",
          "name": "",
          "type": "address"
        }
      ],
      "stateMutability": "view",
      "type": "function"
    },
    {
      "inputs": [],
      "name": "symbol",
      "outputs": [
        {
          "internalType": "string",
          "name": "",
          "type": "string"
        }
      ],
      "stateMutability": "view",
      "type": "function"
    },
    {
      "inputs": [],
      "name": "totalSupply",
      "outputs": [
        {
          "internalType": "uint256",
          "name": "",
          "type": "uint256"
        }
      ],
      "stateMutability": "view",
      "type": "function"
    },
    {
      "inputs": [
        {
          "internalType": "address",
          "name": "_to",
          "type": "address"
        },
        {
          "internalType": "uint256",
          "name": "_value",
          "type": "uint256"
        }
      ],
      "name": "transfer",
      "outputs": [
        {
          "internalType": "bool",
          "name": "success",
          "type": "bool"
        }
      ],
      "stateMutability": "nonpayable",
      "type": "function"
    },
    {
      "inputs": [
        {
          "internalType": "address",
          "name": "_from",
          "type": "address"
        },
        {
          "internalType": "address",
          "name": "_to",
          "type": "address"
        },
        {
          "internalType": "uint256",
          "name": "_value",
          "type": "uint256"
        }
      ],
      "name": "transferFrom",
      "outputs": [
        {
          "internalType": "bool",
          "name": "success",
          "type": "bool"
        }
      ],
      "stateMutability": "nonpayable",
      "type": "function"
    },
    {
      "inputs": [
        {
          "internalType": "address",
          "name": "_to",
          "type": "address"
        },
        {
          "internalType": "uint256",
          "name": "_value",
          "type": "uint256"
        }
      ],
      "name": "transferTokenToInvestor",
      "outputs": [
        {
          "internalType": "bool",
          "name": "success",
          "type": "bool"
        }
      ],
      "stateMutability": "nonpayable",
      "type": "function"
    }
  ],
  "bytecode": "0x60806040526040518060400160405280600d81526020017f4d696e6470617920546f6b656e000000000000000000000000000000000000008152506000908051906020019062000051929190620001ca565b506040518060400160405280600781526020017f4d494e4450415900000000000000000000000000000000000000000000000000815250600190805190602001906200009f929190620001ca565b50601260025530600760006101000a81548173ffffffffffffffffffffffffffffffffffffffff021916908373ffffffffffffffffffffffffffffffffffffffff160217905550348015620000f357600080fd5b5033600460006101000a81548173ffffffffffffffffffffffffffffffffffffffff021916908373ffffffffffffffffffffffffffffffffffffffff160217905550600254600a620001469190620002d5565b620f424062000156919062000412565b60038190555060035460056000600460009054906101000a900473ffffffffffffffffffffffffffffffffffffffff1673ffffffffffffffffffffffffffffffffffffffff1673ffffffffffffffffffffffffffffffffffffffff168152602001908152602001600020819055506200051e565b828054620001d8906200047d565b90600052602060002090601f016020900481019282620001fc576000855562000248565b82601f106200021757805160ff191683800117855562000248565b8280016001018555821562000248579182015b82811115620002475782518255916020019190600101906200022a565b5b5090506200025791906200025b565b5090565b5b80821115620002765760008160009055506001016200025c565b5090565b6000808291508390505b6001851115620002cc57808604811115620002a457620002a3620004b3565b5b6001851615620002b45780820291505b8081029050620002c48562000511565b945062000284565b94509492505050565b6000620002e28262000473565b9150620002ef8362000473565b92506200031e7fffffffffffffffffffffffffffffffffffffffffffffffffffffffffffffffff848462000326565b905092915050565b6000826200033857600190506200040b565b816200034857600090506200040b565b81600181146200036157600281146200036c57620003a2565b60019150506200040b565b60ff841115620003815762000380620004b3565b5b8360020a9150848211156200039b576200039a620004b3565b5b506200040b565b5060208310610133831016604e8410600b8410161715620003dc5782820a905083811115620003d657620003d5620004b3565b5b6200040b565b620003eb84848460016200027a565b92509050818404811115620004055762000404620004b3565b5b81810290505b9392505050565b60006200041f8262000473565b91506200042c8362000473565b9250817fffffffffffffffffffffffffffffffffffffffffffffffffffffffffffffffff0483118215151615620004685762000467620004b3565b5b828202905092915050565b6000819050919050565b600060028204905060018216806200049657607f821691505b60208210811415620004ad57620004ac620004e2565b5b50919050565b7f4e487b7100000000000000000000000000000000000000000000000000000000600052601160045260246000fd5b7f4e487b7100000000000000000000000000000000000000000000000000000000600052602260045260246000fd5b60008160011c9050919050565b61124f806200052e6000396000f3fe608060405234801561001057600080fd5b50600436106100f55760003560e01c806370a0823111610097578063d1df306c11610066578063d1df306c146102b0578063dd62ed3e146102cc578063e54845b6146102fc578063ea1962d61461031a576100f5565b806370a08231146102145780638da5cb5b1461024457806395d89b4114610262578063a9059cbb14610280576100f5565b806323b872dd116100d357806323b872dd14610166578063251a52f814610196578063313ce567146101c65780633f83fb2d146101e4576100f5565b806306fdde03146100fa578063095ea7b31461011857806318160ddd14610148575b600080fd5b61010261034a565b60405161010f9190610ee5565b60405180910390f35b610132600480360381019061012d9190610d9e565b6103d8565b60405161013f9190610eca565b60405180910390f35b610150610503565b60405161015d9190610f47565b60405180910390f35b610180600480360381019061017b9190610d4f565b610509565b60405161018d9190610eca565b60405180910390f35b6101b060048036038101906101ab9190610d9e565b6106fe565b6040516101bd9190610eca565b60405180910390f35b6101ce6107a5565b6040516101db9190610f47565b60405180910390f35b6101fe60048036038101906101f99190610cea565b6107ab565b60405161020b9190610f47565b60405180910390f35b61022e60048036038101906102299190610cea565b6107c3565b60405161023b9190610f47565b60405180910390f35b61024c6107db565b6040516102599190610e86565b60405180910390f35b61026a610801565b6040516102779190610ee5565b60405180910390f35b61029a60048036038101906102959190610d9e565b61088f565b6040516102a79190610eca565b60405180910390f35b6102ca60048036038101906102c59190610d9e565b6108f2565b005b6102e660048036038101906102e19190610d13565b610acc565b6040516102f39190610f47565b60405180910390f35b610304610af1565b6040516103119190610e86565b60405180910390f35b610334600480360381019061032f9190610cea565b610b17565b6040516103419190610f47565b60405180910390f35b60008054610357906110ac565b80601f0160208091040260200160405190810160405280929190818152602001828054610383906110ac565b80156103d05780601f106103a5576101008083540402835291602001916103d0565b820191906000526020600020905b8154815290600101906020018083116103b357829003601f168201915b505050505081565b60008073ffffffffffffffffffffffffffffffffffffffff168373ffffffffffffffffffffffffffffffffffffffff16141561041357600080fd5b81600660003373ffffffffffffffffffffffffffffffffffffffff1673ffffffffffffffffffffffffffffffffffffffff16815260200190815260200160002060008573ffffffffffffffffffffffffffffffffffffffff1673ffffffffffffffffffffffffffffffffffffffff168152602001908152602001600020819055508273ffffffffffffffffffffffffffffffffffffffff163373ffffffffffffffffffffffffffffffffffffffff167f8c5be1e5ebec7d5bd14f71427d1e84f3dd0314c0f7b2291e5b200ac8c7c3b925846040516104f19190610f47565b60405180910390a36001905092915050565b60035481565b6000600560008573ffffffffffffffffffffffffffffffffffffffff1673ffffffffffffffffffffffffffffffffffffffff1681526020019081526020016000205482111561055757600080fd5b600660008573ffffffffffffffffffffffffffffffffffffffff1673ffffffffffffffffffffffffffffffffffffffff16815260200190815260200160002060003373ffffffffffffffffffffffffffffffffffffffff1673ffffffffffffffffffffffffffffffffffffffff168152602001908152602001600020548211156105e057600080fd5b81600660008673ffffffffffffffffffffffffffffffffffffffff1673ffffffffffffffffffffffffffffffffffffffff16815260200190815260200160002060003373ffffffffffffffffffffffffffffffffffffffff1673ffffffffffffffffffffffffffffffffffffffff168152602001908152602001600020546106689190610ffd565b600660008673ffffffffffffffffffffffffffffffffffffffff1673ffffffffffffffffffffffffffffffffffffffff16815260200190815260200160002060003373ffffffffffffffffffffffffffffffffffffffff1673ffffffffffffffffffffffffffffffffffffffff168152602001908152602001600020819055506106f3848484610b2f565b600190509392505050565b60008160056000600460009054906101000a900473ffffffffffffffffffffffffffffffffffffffff1673ffffffffffffffffffffffffffffffffffffffff1673ffffffffffffffffffffffffffffffffffffffff16815260200190815260200160002054101561076e57600080fd5b61079b600460009054906101000a900473ffffffffffffffffffffffffffffffffffffffff168484610b2f565b6001905092915050565b60025481565b60096020528060005260406000206000915090505481565b60056020528060005260406000206000915090505481565b600460009054906101000a900473ffffffffffffffffffffffffffffffffffffffff1681565b6001805461080e906110ac565b80601f016020809104026020016040519081016040528092919081815260200182805461083a906110ac565b80156108875780601f1061085c57610100808354040283529160200191610887565b820191906000526020600020905b81548152906001019060200180831161086a57829003601f168201915b505050505081565b600081600560003373ffffffffffffffffffffffffffffffffffffffff1673ffffffffffffffffffffffffffffffffffffffff1681526020019081526020016000205410156108dd57600080fd5b6108e8338484610b2f565b6001905092915050565b600073ffffffffffffffffffffffffffffffffffffffff168273ffffffffffffffffffffffffffffffffffffffff161415610962576040517f08c379a000000000000000000000000000000000000000000000000000000000815260040161095990610f27565b60405180910390fd5b80600560008473ffffffffffffffffffffffffffffffffffffffff1673ffffffffffffffffffffffffffffffffffffffff16815260200190815260200160002054116109e3576040517f08c379a00000000000000000000000000000000000000000000000000000000081526004016109da90610f07565b60405180910390fd5b80600560008473ffffffffffffffffffffffffffffffffffffffff1673ffffffffffffffffffffffffffffffffffffffff1681526020019081526020016000206000828254610a329190610ffd565b9250508190555080600560008073ffffffffffffffffffffffffffffffffffffffff1673ffffffffffffffffffffffffffffffffffffffff1681526020019081526020016000206000828254610a889190610fa7565b925050819055507fcc16f5dbb4873280815c1ee09dbd06736cffcc184412cf7a71a0fdb75d397ca58282604051610ac0929190610ea1565b60405180910390a15050565b6006602052816000526040600020602052806000526040600020600091509150505481565b600760009054906101000a900473ffffffffffffffffffffffffffffffffffffffff1681565b60086020528060005260406000206000915090505481565b600073ffffffffffffffffffffffffffffffffffffffff168273ffffffffffffffffffffffffffffffffffffffff161415610b6957600080fd5b80600560008573ffffffffffffffffffffffffffffffffffffffff1673ffffffffffffffffffffffffffffffffffffffff1681526020019081526020016000206000828254610bb89190610ffd565b9250508190555080600560008473ffffffffffffffffffffffffffffffffffffffff1673ffffffffffffffffffffffffffffffffffffffff1681526020019081526020016000206000828254610c0e9190610fa7565b925050819055508173ffffffffffffffffffffffffffffffffffffffff168373ffffffffffffffffffffffffffffffffffffffff167f9ed053bb818ff08b8353cd46f78db1f0799f31c9e4458fdb425c10eccd2efc4483600560008773ffffffffffffffffffffffffffffffffffffffff1673ffffffffffffffffffffffffffffffffffffffff16815260200190815260200160002054604051610cb3929190610f62565b60405180910390a3505050565b600081359050610ccf816111eb565b92915050565b600081359050610ce481611202565b92915050565b600060208284031215610cfc57600080fd5b6000610d0a84828501610cc0565b91505092915050565b60008060408385031215610d2657600080fd5b6000610d3485828601610cc0565b9250506020610d4585828601610cc0565b9150509250929050565b600080600060608486031215610d6457600080fd5b6000610d7286828701610cc0565b9350506020610d8386828701610cc0565b9250506040610d9486828701610cd5565b9150509250925092565b60008060408385031215610db157600080fd5b6000610dbf85828601610cc0565b9250506020610dd085828601610cd5565b9150509250929050565b610de381611031565b82525050565b610df281611043565b82525050565b6000610e0382610f8b565b610e0d8185610f96565b9350610e1d818560208601611079565b610e268161113c565b840191505092915050565b6000610e3e602283610f96565b9150610e498261114d565b604082019050919050565b6000610e61602183610f96565b9150610e6c8261119c565b604082019050919050565b610e808161106f565b82525050565b6000602082019050610e9b6000830184610dda565b92915050565b6000604082019050610eb66000830185610dda565b610ec36020830184610e77565b9392505050565b6000602082019050610edf6000830184610de9565b92915050565b60006020820190508181036000830152610eff8184610df8565b905092915050565b60006020820190508181036000830152610f2081610e31565b9050919050565b60006020820190508181036000830152610f4081610e54565b9050919050565b6000602082019050610f5c6000830184610e77565b92915050565b6000604082019050610f776000830185610e77565b610f846020830184610e77565b9392505050565b600081519050919050565b600082825260208201905092915050565b6000610fb28261106f565b9150610fbd8361106f565b9250827fffffffffffffffffffffffffffffffffffffffffffffffffffffffffffffffff03821115610ff257610ff16110de565b5b828201905092915050565b60006110088261106f565b91506110138361106f565b925082821015611026576110256110de565b5b828203905092915050565b600061103c8261104f565b9050919050565b60008115159050919050565b600073ffffffffffffffffffffffffffffffffffffffff82169050919050565b6000819050919050565b60005b8381101561109757808201518184015260208101905061107c565b838111156110a6576000848401525b50505050565b600060028204905060018216806110c457607f821691505b602082108114156110d8576110d761110d565b5b50919050565b7f4e487b7100000000000000000000000000000000000000000000000000000000600052601160045260246000fd5b7f4e487b7100000000000000000000000000000000000000000000000000000000600052602260045260246000fd5b6000601f19601f8301169050919050565b7f45524332303a206275726e20616d6f756e7420657863656564732062616c616e60008201527f6365000000000000000000000000000000000000000000000000000000000000602082015250565b7f45524332303a206275726e2066726f6d20746865207a65726f2061646472657360008201527f7300000000000000000000000000000000000000000000000000000000000000602082015250565b6111f481611031565b81146111ff57600080fd5b50565b61120b8161106f565b811461121657600080fd5b5056fea26469706673582212203047af51c29126c554e4b425d04a811016e67e931eb496ef39dd686e3169710c64736f6c63430008040033",
  "immutableReferences": {},
  "source": "// SPDX-License-Identifier: UNLICENSED\n\npragma solidity ^0.8.4;\nimport \"./Token.sol\";\n\ncontract Liquidity is Token {\n    address public liquidityContract = address(this);\n    mapping(address => uint256) public liquidityInvestmentBalance;\n    mapping(address => uint256) public liquidityTokenBalance;\n\n    modifier checkValidityForLiquidity(address _user, uint256 _tokenAmount, uint256 _investmentAmount) {\n        require(_tokenAmount > 0, 'Token amount must be greater than 0');\n        require(_investmentAmount > 0, 'INvestment amount must be greater than 0');\n        require(_user != address(0)); \n        _;\n    }\n\n    function addLiquidity(address _user, uint256 _investmentAmount) internal {\n        require(_investmentAmount > 0, 'INvestment amount must be greater than 0');\n        require(_user != address(0)); \n        liquidityInvestmentBalance[liquidityContract] = _investmentAmount;\n    }\n\n    // Add liquidity to liquidity smart contract\n    function addStakingLiquidity(address _user, uint256 _tokenAmount, uint256 _investmentAmount) internal checkValidityForLiquidity(_user, _tokenAmount, _investmentAmount) {\n        liquidityInvestmentBalance[liquidityContract] = _investmentAmount;\n        liquidityTokenBalance[_user] = _tokenAmount;\n    }\n}",
  "sourcePath": "/home/savan-elluminati/Savan/Blockchain/Token & Pool Management/contracts/Liquidity.sol",
  "compiler": {
    "name": "solc",
    "version": "0.8.4+commit.c7e474f2.Emscripten.clang"
  },
  "schemaVersion": "3.4.9",
  "updatedAt": "2022-10-31T07:05:12.826Z",
  "devdoc": {
    "kind": "dev",
    "methods": {},
    "version": 1
  },
  "userdoc": {
    "kind": "user",
    "methods": {},
    "version": 1
  }
}