{
  "contractName": "Token",
  "abi": [
    {
      "inputs": [],
      "stateMutability": "nonpayable",
      "type": "constructor"
    },
    {
      "anonymous": false,
      "inputs": [
        {
          "indexed": true,
          "internalType": "address",
          "name": "owner",
          "type": "address"
        },
        {
          "indexed": true,
          "internalType": "address",
          "name": "spender",
          "type": "address"
        },
        {
          "indexed": false,
          "internalType": "uint256",
          "name": "value",
          "type": "uint256"
        }
      ],
      "name": "Approval",
      "type": "event"
    },
    {
      "anonymous": false,
      "inputs": [
        {
          "indexed": false,
          "internalType": "address",
          "name": "from",
          "type": "address"
        },
        {
          "indexed": false,
          "internalType": "uint256",
          "name": "_amount",
          "type": "uint256"
        }
      ],
      "name": "Burn",
      "type": "event"
    },
    {
      "anonymous": false,
      "inputs": [
        {
          "indexed": true,
          "internalType": "address",
          "name": "from",
          "type": "address"
        },
        {
          "indexed": true,
          "internalType": "address",
          "name": "to",
          "type": "address"
        },
        {
          "indexed": false,
          "internalType": "uint256",
          "name": "_value",
          "type": "uint256"
        },
        {
          "indexed": false,
          "internalType": "uint256",
          "name": "balance",
          "type": "uint256"
        }
      ],
      "name": "Transfer",
      "type": "event"
    },
    {
      "inputs": [
        {
          "internalType": "address",
          "name": "",
          "type": "address"
        },
        {
          "internalType": "address",
          "name": "",
          "type": "address"
        }
      ],
      "name": "allowance",
      "outputs": [
        {
          "internalType": "uint256",
          "name": "",
          "type": "uint256"
        }
      ],
      "stateMutability": "view",
      "type": "function"
    },
    {
      "inputs": [
        {
          "internalType": "address",
          "name": "",
          "type": "address"
        }
      ],
      "name": "balanceOf",
      "outputs": [
        {
          "internalType": "uint256",
          "name": "",
          "type": "uint256"
        }
      ],
      "stateMutability": "view",
      "type": "function"
    },
    {
      "inputs": [],
      "name": "decimals",
      "outputs": [
        {
          "internalType": "uint256",
          "name": "",
          "type": "uint256"
        }
      ],
      "stateMutability": "view",
      "type": "function"
    },
    {
      "inputs": [],
      "name": "name",
      "outputs": [
        {
          "internalType": "string",
          "name": "",
          "type": "string"
        }
      ],
      "stateMutability": "view",
      "type": "function"
    },
    {
      "inputs": [],
      "name": "owner",
      "outputs": [
        {
          "internalType": "address",
          "name": "",
          "type": "address"
        }
      ],
      "stateMutability": "view",
      "type": "function"
    },
    {
      "inputs": [],
      "name": "symbol",
      "outputs": [
        {
          "internalType": "string",
          "name": "",
          "type": "string"
        }
      ],
      "stateMutability": "view",
      "type": "function"
    },
    {
      "inputs": [],
      "name": "totalSupply",
      "outputs": [
        {
          "internalType": "uint256",
          "name": "",
          "type": "uint256"
        }
      ],
      "stateMutability": "view",
      "type": "function"
    },
    {
      "inputs": [
        {
          "internalType": "address",
          "name": "_to",
          "type": "address"
        },
        {
          "internalType": "uint256",
          "name": "_value",
          "type": "uint256"
        }
      ],
      "name": "transferTokenToInvestor",
      "outputs": [
        {
          "internalType": "bool",
          "name": "success",
          "type": "bool"
        }
      ],
      "stateMutability": "nonpayable",
      "type": "function"
    },
    {
      "inputs": [
        {
          "internalType": "address",
          "name": "_to",
          "type": "address"
        },
        {
          "internalType": "uint256",
          "name": "_value",
          "type": "uint256"
        }
      ],
      "name": "transfer",
      "outputs": [
        {
          "internalType": "bool",
          "name": "success",
          "type": "bool"
        }
      ],
      "stateMutability": "nonpayable",
      "type": "function"
    },
    {
      "inputs": [
        {
          "internalType": "address",
          "name": "_spender",
          "type": "address"
        },
        {
          "internalType": "uint256",
          "name": "_value",
          "type": "uint256"
        }
      ],
      "name": "approve",
      "outputs": [
        {
          "internalType": "bool",
          "name": "success",
          "type": "bool"
        }
      ],
      "stateMutability": "nonpayable",
      "type": "function"
    },
    {
      "inputs": [
        {
          "internalType": "address",
          "name": "_from",
          "type": "address"
        },
        {
          "internalType": "address",
          "name": "_to",
          "type": "address"
        },
        {
          "internalType": "uint256",
          "name": "_value",
          "type": "uint256"
        }
      ],
      "name": "transferFrom",
      "outputs": [
        {
          "internalType": "bool",
          "name": "success",
          "type": "bool"
        }
      ],
      "stateMutability": "nonpayable",
      "type": "function"
    },
    {
      "inputs": [
        {
          "internalType": "address",
          "name": "_user",
          "type": "address"
        },
        {
          "internalType": "uint256",
          "name": "_amount",
          "type": "uint256"
        }
      ],
      "name": "burnToken",
      "outputs": [],
      "stateMutability": "nonpayable",
      "type": "function"
    }
  ],
  "bytecode": "0x60806040526040518060400160405280600d81526020017f4d696e6470617920546f6b656e00000000000000000000000000000000000000815250600090805190602001906200005192919062000189565b506040518060400160405280600781526020017f4d494e4450415900000000000000000000000000000000000000000000000000815250600190805190602001906200009f92919062000189565b506012600255348015620000b257600080fd5b5033600460006101000a81548173ffffffffffffffffffffffffffffffffffffffff021916908373ffffffffffffffffffffffffffffffffffffffff160217905550600254600a62000105919062000294565b620f4240620001159190620003d1565b60038190555060035460056000600460009054906101000a900473ffffffffffffffffffffffffffffffffffffffff1673ffffffffffffffffffffffffffffffffffffffff1673ffffffffffffffffffffffffffffffffffffffff16815260200190815260200160002081905550620004dd565b82805462000197906200043c565b90600052602060002090601f016020900481019282620001bb576000855562000207565b82601f10620001d657805160ff191683800117855562000207565b8280016001018555821562000207579182015b8281111562000206578251825591602001919060010190620001e9565b5b5090506200021691906200021a565b5090565b5b80821115620002355760008160009055506001016200021b565b5090565b6000808291508390505b60018511156200028b5780860481111562000263576200026262000472565b5b6001851615620002735780820291505b80810290506200028385620004d0565b945062000243565b94509492505050565b6000620002a18262000432565b9150620002ae8362000432565b9250620002dd7fffffffffffffffffffffffffffffffffffffffffffffffffffffffffffffffff8484620002e5565b905092915050565b600082620002f75760019050620003ca565b81620003075760009050620003ca565b81600181146200032057600281146200032b5762000361565b6001915050620003ca565b60ff84111562000340576200033f62000472565b5b8360020a9150848211156200035a576200035962000472565b5b50620003ca565b5060208310610133831016604e8410600b84101617156200039b5782820a90508381111562000395576200039462000472565b5b620003ca565b620003aa848484600162000239565b92509050818404811115620003c457620003c362000472565b5b81810290505b9392505050565b6000620003de8262000432565b9150620003eb8362000432565b9250817fffffffffffffffffffffffffffffffffffffffffffffffffffffffffffffffff048311821515161562000427576200042662000472565b5b828202905092915050565b6000819050919050565b600060028204905060018216806200045557607f821691505b602082108114156200046c576200046b620004a1565b5b50919050565b7f4e487b7100000000000000000000000000000000000000000000000000000000600052601160045260246000fd5b7f4e487b7100000000000000000000000000000000000000000000000000000000600052602260045260246000fd5b60008160011c9050919050565b61113a80620004ed6000396000f3fe608060405234801561001057600080fd5b50600436106100b45760003560e01c806370a082311161007157806370a08231146101a35780638da5cb5b146101d357806395d89b41146101f1578063a9059cbb1461020f578063d1df306c1461023f578063dd62ed3e1461025b576100b4565b806306fdde03146100b9578063095ea7b3146100d757806318160ddd1461010757806323b872dd14610125578063251a52f814610155578063313ce56714610185575b600080fd5b6100c161028b565b6040516100ce9190610dd0565b60405180910390f35b6100f160048036038101906100ec9190610c89565b610319565b6040516100fe9190610db5565b60405180910390f35b61010f610444565b60405161011c9190610e32565b60405180910390f35b61013f600480360381019061013a9190610c3a565b61044a565b60405161014c9190610db5565b60405180910390f35b61016f600480360381019061016a9190610c89565b61063f565b60405161017c9190610db5565b60405180910390f35b61018d6106e6565b60405161019a9190610e32565b60405180910390f35b6101bd60048036038101906101b89190610bd5565b6106ec565b6040516101ca9190610e32565b60405180910390f35b6101db610704565b6040516101e89190610d71565b60405180910390f35b6101f961072a565b6040516102069190610dd0565b60405180910390f35b61022960048036038101906102249190610c89565b6107b8565b6040516102369190610db5565b60405180910390f35b61025960048036038101906102549190610c89565b61081b565b005b61027560048036038101906102709190610bfe565b6109f5565b6040516102829190610e32565b60405180910390f35b6000805461029890610f97565b80601f01602080910402602001604051908101604052809291908181526020018280546102c490610f97565b80156103115780601f106102e657610100808354040283529160200191610311565b820191906000526020600020905b8154815290600101906020018083116102f457829003601f168201915b505050505081565b60008073ffffffffffffffffffffffffffffffffffffffff168373ffffffffffffffffffffffffffffffffffffffff16141561035457600080fd5b81600660003373ffffffffffffffffffffffffffffffffffffffff1673ffffffffffffffffffffffffffffffffffffffff16815260200190815260200160002060008573ffffffffffffffffffffffffffffffffffffffff1673ffffffffffffffffffffffffffffffffffffffff168152602001908152602001600020819055508273ffffffffffffffffffffffffffffffffffffffff163373ffffffffffffffffffffffffffffffffffffffff167f8c5be1e5ebec7d5bd14f71427d1e84f3dd0314c0f7b2291e5b200ac8c7c3b925846040516104329190610e32565b60405180910390a36001905092915050565b60035481565b6000600560008573ffffffffffffffffffffffffffffffffffffffff1673ffffffffffffffffffffffffffffffffffffffff1681526020019081526020016000205482111561049857600080fd5b600660008573ffffffffffffffffffffffffffffffffffffffff1673ffffffffffffffffffffffffffffffffffffffff16815260200190815260200160002060003373ffffffffffffffffffffffffffffffffffffffff1673ffffffffffffffffffffffffffffffffffffffff1681526020019081526020016000205482111561052157600080fd5b81600660008673ffffffffffffffffffffffffffffffffffffffff1673ffffffffffffffffffffffffffffffffffffffff16815260200190815260200160002060003373ffffffffffffffffffffffffffffffffffffffff1673ffffffffffffffffffffffffffffffffffffffff168152602001908152602001600020546105a99190610ee8565b600660008673ffffffffffffffffffffffffffffffffffffffff1673ffffffffffffffffffffffffffffffffffffffff16815260200190815260200160002060003373ffffffffffffffffffffffffffffffffffffffff1673ffffffffffffffffffffffffffffffffffffffff16815260200190815260200160002081905550610634848484610a1a565b600190509392505050565b60008160056000600460009054906101000a900473ffffffffffffffffffffffffffffffffffffffff1673ffffffffffffffffffffffffffffffffffffffff1673ffffffffffffffffffffffffffffffffffffffff1681526020019081526020016000205410156106af57600080fd5b6106dc600460009054906101000a900473ffffffffffffffffffffffffffffffffffffffff168484610a1a565b6001905092915050565b60025481565b60056020528060005260406000206000915090505481565b600460009054906101000a900473ffffffffffffffffffffffffffffffffffffffff1681565b6001805461073790610f97565b80601f016020809104026020016040519081016040528092919081815260200182805461076390610f97565b80156107b05780601f10610785576101008083540402835291602001916107b0565b820191906000526020600020905b81548152906001019060200180831161079357829003601f168201915b505050505081565b600081600560003373ffffffffffffffffffffffffffffffffffffffff1673ffffffffffffffffffffffffffffffffffffffff16815260200190815260200160002054101561080657600080fd5b610811338484610a1a565b6001905092915050565b600073ffffffffffffffffffffffffffffffffffffffff168273ffffffffffffffffffffffffffffffffffffffff16141561088b576040517f08c379a000000000000000000000000000000000000000000000000000000000815260040161088290610e12565b60405180910390fd5b80600560008473ffffffffffffffffffffffffffffffffffffffff1673ffffffffffffffffffffffffffffffffffffffff168152602001908152602001600020541161090c576040517f08c379a000000000000000000000000000000000000000000000000000000000815260040161090390610df2565b60405180910390fd5b80600560008473ffffffffffffffffffffffffffffffffffffffff1673ffffffffffffffffffffffffffffffffffffffff168152602001908152602001600020600082825461095b9190610ee8565b9250508190555080600560008073ffffffffffffffffffffffffffffffffffffffff1673ffffffffffffffffffffffffffffffffffffffff16815260200190815260200160002060008282546109b19190610e92565b925050819055507fcc16f5dbb4873280815c1ee09dbd06736cffcc184412cf7a71a0fdb75d397ca582826040516109e9929190610d8c565b60405180910390a15050565b6006602052816000526040600020602052806000526040600020600091509150505481565b600073ffffffffffffffffffffffffffffffffffffffff168273ffffffffffffffffffffffffffffffffffffffff161415610a5457600080fd5b80600560008573ffffffffffffffffffffffffffffffffffffffff1673ffffffffffffffffffffffffffffffffffffffff1681526020019081526020016000206000828254610aa39190610ee8565b9250508190555080600560008473ffffffffffffffffffffffffffffffffffffffff1673ffffffffffffffffffffffffffffffffffffffff1681526020019081526020016000206000828254610af99190610e92565b925050819055508173ffffffffffffffffffffffffffffffffffffffff168373ffffffffffffffffffffffffffffffffffffffff167f9ed053bb818ff08b8353cd46f78db1f0799f31c9e4458fdb425c10eccd2efc4483600560008773ffffffffffffffffffffffffffffffffffffffff1673ffffffffffffffffffffffffffffffffffffffff16815260200190815260200160002054604051610b9e929190610e4d565b60405180910390a3505050565b600081359050610bba816110d6565b92915050565b600081359050610bcf816110ed565b92915050565b600060208284031215610be757600080fd5b6000610bf584828501610bab565b91505092915050565b60008060408385031215610c1157600080fd5b6000610c1f85828601610bab565b9250506020610c3085828601610bab565b9150509250929050565b600080600060608486031215610c4f57600080fd5b6000610c5d86828701610bab565b9350506020610c6e86828701610bab565b9250506040610c7f86828701610bc0565b9150509250925092565b60008060408385031215610c9c57600080fd5b6000610caa85828601610bab565b9250506020610cbb85828601610bc0565b9150509250929050565b610cce81610f1c565b82525050565b610cdd81610f2e565b82525050565b6000610cee82610e76565b610cf88185610e81565b9350610d08818560208601610f64565b610d1181611027565b840191505092915050565b6000610d29602283610e81565b9150610d3482611038565b604082019050919050565b6000610d4c602183610e81565b9150610d5782611087565b604082019050919050565b610d6b81610f5a565b82525050565b6000602082019050610d866000830184610cc5565b92915050565b6000604082019050610da16000830185610cc5565b610dae6020830184610d62565b9392505050565b6000602082019050610dca6000830184610cd4565b92915050565b60006020820190508181036000830152610dea8184610ce3565b905092915050565b60006020820190508181036000830152610e0b81610d1c565b9050919050565b60006020820190508181036000830152610e2b81610d3f565b9050919050565b6000602082019050610e476000830184610d62565b92915050565b6000604082019050610e626000830185610d62565b610e6f6020830184610d62565b9392505050565b600081519050919050565b600082825260208201905092915050565b6000610e9d82610f5a565b9150610ea883610f5a565b9250827fffffffffffffffffffffffffffffffffffffffffffffffffffffffffffffffff03821115610edd57610edc610fc9565b5b828201905092915050565b6000610ef382610f5a565b9150610efe83610f5a565b925082821015610f1157610f10610fc9565b5b828203905092915050565b6000610f2782610f3a565b9050919050565b60008115159050919050565b600073ffffffffffffffffffffffffffffffffffffffff82169050919050565b6000819050919050565b60005b83811015610f82578082015181840152602081019050610f67565b83811115610f91576000848401525b50505050565b60006002820490506001821680610faf57607f821691505b60208210811415610fc357610fc2610ff8565b5b50919050565b7f4e487b7100000000000000000000000000000000000000000000000000000000600052601160045260246000fd5b7f4e487b7100000000000000000000000000000000000000000000000000000000600052602260045260246000fd5b6000601f19601f8301169050919050565b7f45524332303a206275726e20616d6f756e7420657863656564732062616c616e60008201527f6365000000000000000000000000000000000000000000000000000000000000602082015250565b7f45524332303a206275726e2066726f6d20746865207a65726f2061646472657360008201527f7300000000000000000000000000000000000000000000000000000000000000602082015250565b6110df81610f1c565b81146110ea57600080fd5b50565b6110f681610f5a565b811461110157600080fd5b5056fea2646970667358221220e6049f29d0cf1a190326717da326135d3263f503c9892b24a9ad8f44c880623e64736f6c63430008040033",
  "immutableReferences": {},
  "source": "// SPDX-License-Identifier: UNLICENSED\n\npragma solidity ^0.8.4;\n\ncontract Token {\n\n    // Variables\n    string public name = \"Mindpay Token\";\n    string public symbol = \"MINDPAY\";\n    uint256 public decimals = 18;\n    uint256 public totalSupply;\n    address public owner;\n\n    //Event\n    event Transfer(address indexed from, address indexed to, uint256 _value, uint256 balance);\n    event Approval(address indexed owner, address indexed spender, uint256 value);  \n    event Burn(address from, uint256 _amount);\n\n    //Track Balance\n    mapping(address => uint256) public balanceOf;\n    mapping(address => mapping(address => uint256)) public allowance;\n\n    constructor() {\n        owner = msg.sender;\n        totalSupply = 1000000 * (10 ** decimals);\n        balanceOf[owner] = totalSupply;\n    }\n\n    function transferTokenToInvestor(address _to, uint256 _value) public returns (bool success) {\n       require(balanceOf[owner] >= _value);\n        _transfer(owner, _to, _value);\n        return true; \n    }\n\n    // Transfer\n    function transfer (address _to, uint256 _value) public returns (bool success){\n        require(balanceOf[msg.sender] >= _value);\n        _transfer(msg.sender, _to, _value);\n        return true;\n    }\n\n    function _transfer(address _from, address _to, uint256 _value) internal {\n        require(_to != address(0));\n        balanceOf[_from] -= _value;\n        balanceOf[_to] += _value;\n        emit Transfer(_from, _to, _value, balanceOf[_to]);\n    }\n\n    // Approve Tokens\n    function approve(address _spender, uint256 _value) public returns (bool success){\n        require(_spender != address(0));\n        allowance[msg.sender][_spender] = _value;\n        emit Approval(msg.sender, _spender, _value);\n        return true;\n    }\n\n    // Transfer From\n    function transferFrom(address _from, address _to, uint256 _value) public returns (bool success){\n        require(_value <= balanceOf[_from]);\n        require(_value <= allowance[_from][msg.sender]);\n        allowance[_from][msg.sender] = allowance[_from][msg.sender] - _value;\n        _transfer(_from, _to, _value);\n        return true;\n    }\n\n    function burnToken(address _user, uint256 _amount) public {\n        require(_user != address(0), \"ERC20: burn from the zero address\");\n        require(balanceOf[_user] > _amount, \"ERC20: burn amount exceeds balance\");\n        balanceOf[_user] -= _amount;\n        balanceOf[address(0)] += _amount;\n        emit Burn(_user, _amount);\n    }\n}",
  "sourcePath": "/home/savan-elluminati/Savan/Blockchain/Token & Pool Management/contracts/Token.sol",
  "compiler": {
    "name": "solc",
    "version": "0.8.4+commit.c7e474f2.Emscripten.clang"
  },
  "schemaVersion": "3.4.9",
  "updatedAt": "2022-10-31T07:05:12.830Z",
  "devdoc": {
    "kind": "dev",
    "methods": {},
    "version": 1
  },
  "userdoc": {
    "kind": "user",
    "methods": {},
    "version": 1
  }
}