{
  "contractName": "Token",
  "abi": [
    {
      "inputs": [],
      "stateMutability": "nonpayable",
      "type": "constructor"
    },
    {
      "anonymous": false,
      "inputs": [
        {
          "indexed": true,
          "internalType": "address",
          "name": "owner",
          "type": "address"
        },
        {
          "indexed": true,
          "internalType": "address",
          "name": "spender",
          "type": "address"
        },
        {
          "indexed": false,
          "internalType": "uint256",
          "name": "value",
          "type": "uint256"
        }
      ],
      "name": "Approval",
      "type": "event"
    },
    {
      "anonymous": false,
      "inputs": [
        {
          "indexed": true,
          "internalType": "address",
          "name": "from",
          "type": "address"
        },
        {
          "indexed": true,
          "internalType": "address",
          "name": "to",
          "type": "address"
        },
        {
          "indexed": false,
          "internalType": "uint256",
          "name": "_value",
          "type": "uint256"
        },
        {
          "indexed": false,
          "internalType": "uint256",
          "name": "balance",
          "type": "uint256"
        }
      ],
      "name": "Transfer",
      "type": "event"
    },
    {
      "inputs": [
        {
          "internalType": "address",
          "name": "",
          "type": "address"
        },
        {
          "internalType": "address",
          "name": "",
          "type": "address"
        }
      ],
      "name": "allowance",
      "outputs": [
        {
          "internalType": "uint256",
          "name": "",
          "type": "uint256"
        }
      ],
      "stateMutability": "view",
      "type": "function"
    },
    {
      "inputs": [
        {
          "internalType": "address",
          "name": "",
          "type": "address"
        }
      ],
      "name": "balanceOf",
      "outputs": [
        {
          "internalType": "uint256",
          "name": "",
          "type": "uint256"
        }
      ],
      "stateMutability": "view",
      "type": "function"
    },
    {
      "inputs": [],
      "name": "decimals",
      "outputs": [
        {
          "internalType": "uint256",
          "name": "",
          "type": "uint256"
        }
      ],
      "stateMutability": "view",
      "type": "function"
    },
    {
      "inputs": [],
      "name": "name",
      "outputs": [
        {
          "internalType": "string",
          "name": "",
          "type": "string"
        }
      ],
      "stateMutability": "view",
      "type": "function"
    },
    {
      "inputs": [],
      "name": "owner",
      "outputs": [
        {
          "internalType": "address",
          "name": "",
          "type": "address"
        }
      ],
      "stateMutability": "view",
      "type": "function"
    },
    {
      "inputs": [],
      "name": "symbol",
      "outputs": [
        {
          "internalType": "string",
          "name": "",
          "type": "string"
        }
      ],
      "stateMutability": "view",
      "type": "function"
    },
    {
      "inputs": [],
      "name": "totalSupply",
      "outputs": [
        {
          "internalType": "uint256",
          "name": "",
          "type": "uint256"
        }
      ],
      "stateMutability": "view",
      "type": "function"
    },
    {
      "inputs": [
        {
          "internalType": "address",
          "name": "_to",
          "type": "address"
        },
        {
          "internalType": "uint256",
          "name": "_value",
          "type": "uint256"
        }
      ],
      "name": "transferTokenToInvestor",
      "outputs": [
        {
          "internalType": "bool",
          "name": "success",
          "type": "bool"
        }
      ],
      "stateMutability": "nonpayable",
      "type": "function"
    },
    {
      "inputs": [
        {
          "internalType": "address",
          "name": "_to",
          "type": "address"
        },
        {
          "internalType": "uint256",
          "name": "_value",
          "type": "uint256"
        }
      ],
      "name": "transfer",
      "outputs": [
        {
          "internalType": "bool",
          "name": "success",
          "type": "bool"
        }
      ],
      "stateMutability": "nonpayable",
      "type": "function"
    },
    {
      "inputs": [
        {
          "internalType": "address",
          "name": "_spender",
          "type": "address"
        },
        {
          "internalType": "uint256",
          "name": "_value",
          "type": "uint256"
        }
      ],
      "name": "approve",
      "outputs": [
        {
          "internalType": "bool",
          "name": "success",
          "type": "bool"
        }
      ],
      "stateMutability": "nonpayable",
      "type": "function"
    },
    {
      "inputs": [
        {
          "internalType": "address",
          "name": "_from",
          "type": "address"
        },
        {
          "internalType": "address",
          "name": "_to",
          "type": "address"
        },
        {
          "internalType": "uint256",
          "name": "_value",
          "type": "uint256"
        }
      ],
      "name": "transferFrom",
      "outputs": [
        {
          "internalType": "bool",
          "name": "success",
          "type": "bool"
        }
      ],
      "stateMutability": "nonpayable",
      "type": "function"
    }
  ],
  "bytecode": "0x60806040526040518060400160405280600d81526020017f4d696e6470617920546f6b656e00000000000000000000000000000000000000815250600090805190602001906200005192919062000189565b506040518060400160405280600781526020017f4d494e4450415900000000000000000000000000000000000000000000000000815250600190805190602001906200009f92919062000189565b506012600255348015620000b257600080fd5b5033600460006101000a81548173ffffffffffffffffffffffffffffffffffffffff021916908373ffffffffffffffffffffffffffffffffffffffff160217905550600254600a62000105919062000294565b620f4240620001159190620003d1565b60038190555060035460056000600460009054906101000a900473ffffffffffffffffffffffffffffffffffffffff1673ffffffffffffffffffffffffffffffffffffffff1673ffffffffffffffffffffffffffffffffffffffff16815260200190815260200160002081905550620004dd565b82805462000197906200043c565b90600052602060002090601f016020900481019282620001bb576000855562000207565b82601f10620001d657805160ff191683800117855562000207565b8280016001018555821562000207579182015b8281111562000206578251825591602001919060010190620001e9565b5b5090506200021691906200021a565b5090565b5b80821115620002355760008160009055506001016200021b565b5090565b6000808291508390505b60018511156200028b5780860481111562000263576200026262000472565b5b6001851615620002735780820291505b80810290506200028385620004d0565b945062000243565b94509492505050565b6000620002a18262000432565b9150620002ae8362000432565b9250620002dd7fffffffffffffffffffffffffffffffffffffffffffffffffffffffffffffffff8484620002e5565b905092915050565b600082620002f75760019050620003ca565b81620003075760009050620003ca565b81600181146200032057600281146200032b5762000361565b6001915050620003ca565b60ff84111562000340576200033f62000472565b5b8360020a9150848211156200035a576200035962000472565b5b50620003ca565b5060208310610133831016604e8410600b84101617156200039b5782820a90508381111562000395576200039462000472565b5b620003ca565b620003aa848484600162000239565b92509050818404811115620003c457620003c362000472565b5b81810290505b9392505050565b6000620003de8262000432565b9150620003eb8362000432565b9250817fffffffffffffffffffffffffffffffffffffffffffffffffffffffffffffffff048311821515161562000427576200042662000472565b5b828202905092915050565b6000819050919050565b600060028204905060018216806200045557607f821691505b602082108114156200046c576200046b620004a1565b5b50919050565b7f4e487b7100000000000000000000000000000000000000000000000000000000600052601160045260246000fd5b7f4e487b7100000000000000000000000000000000000000000000000000000000600052602260045260246000fd5b60008160011c9050919050565b610dec80620004ed6000396000f3fe608060405234801561001057600080fd5b50600436106100a95760003560e01c8063313ce56711610071578063313ce5671461017a57806370a08231146101985780638da5cb5b146101c857806395d89b41146101e6578063a9059cbb14610204578063dd62ed3e14610234576100a9565b806306fdde03146100ae578063095ea7b3146100cc57806318160ddd146100fc57806323b872dd1461011a578063251a52f81461014a575b600080fd5b6100b6610264565b6040516100c39190610b60565b60405180910390f35b6100e660048036038101906100e19190610a88565b6102f2565b6040516100f39190610b45565b60405180910390f35b61010461041d565b6040516101119190610b82565b60405180910390f35b610134600480360381019061012f9190610a39565b610423565b6040516101419190610b45565b60405180910390f35b610164600480360381019061015f9190610a88565b610618565b6040516101719190610b45565b60405180910390f35b6101826106bf565b60405161018f9190610b82565b60405180910390f35b6101b260048036038101906101ad91906109d4565b6106c5565b6040516101bf9190610b82565b60405180910390f35b6101d06106dd565b6040516101dd9190610b2a565b60405180910390f35b6101ee610703565b6040516101fb9190610b60565b60405180910390f35b61021e60048036038101906102199190610a88565b610791565b60405161022b9190610b45565b60405180910390f35b61024e600480360381019061024991906109fd565b6107f4565b60405161025b9190610b82565b60405180910390f35b6000805461027190610ce7565b80601f016020809104026020016040519081016040528092919081815260200182805461029d90610ce7565b80156102ea5780601f106102bf576101008083540402835291602001916102ea565b820191906000526020600020905b8154815290600101906020018083116102cd57829003601f168201915b505050505081565b60008073ffffffffffffffffffffffffffffffffffffffff168373ffffffffffffffffffffffffffffffffffffffff16141561032d57600080fd5b81600660003373ffffffffffffffffffffffffffffffffffffffff1673ffffffffffffffffffffffffffffffffffffffff16815260200190815260200160002060008573ffffffffffffffffffffffffffffffffffffffff1673ffffffffffffffffffffffffffffffffffffffff168152602001908152602001600020819055508273ffffffffffffffffffffffffffffffffffffffff163373ffffffffffffffffffffffffffffffffffffffff167f8c5be1e5ebec7d5bd14f71427d1e84f3dd0314c0f7b2291e5b200ac8c7c3b9258460405161040b9190610b82565b60405180910390a36001905092915050565b60035481565b6000600560008573ffffffffffffffffffffffffffffffffffffffff1673ffffffffffffffffffffffffffffffffffffffff1681526020019081526020016000205482111561047157600080fd5b600660008573ffffffffffffffffffffffffffffffffffffffff1673ffffffffffffffffffffffffffffffffffffffff16815260200190815260200160002060003373ffffffffffffffffffffffffffffffffffffffff1673ffffffffffffffffffffffffffffffffffffffff168152602001908152602001600020548211156104fa57600080fd5b81600660008673ffffffffffffffffffffffffffffffffffffffff1673ffffffffffffffffffffffffffffffffffffffff16815260200190815260200160002060003373ffffffffffffffffffffffffffffffffffffffff1673ffffffffffffffffffffffffffffffffffffffff168152602001908152602001600020546105829190610c38565b600660008673ffffffffffffffffffffffffffffffffffffffff1673ffffffffffffffffffffffffffffffffffffffff16815260200190815260200160002060003373ffffffffffffffffffffffffffffffffffffffff1673ffffffffffffffffffffffffffffffffffffffff1681526020019081526020016000208190555061060d848484610819565b600190509392505050565b60008160056000600460009054906101000a900473ffffffffffffffffffffffffffffffffffffffff1673ffffffffffffffffffffffffffffffffffffffff1673ffffffffffffffffffffffffffffffffffffffff16815260200190815260200160002054101561068857600080fd5b6106b5600460009054906101000a900473ffffffffffffffffffffffffffffffffffffffff168484610819565b6001905092915050565b60025481565b60056020528060005260406000206000915090505481565b600460009054906101000a900473ffffffffffffffffffffffffffffffffffffffff1681565b6001805461071090610ce7565b80601f016020809104026020016040519081016040528092919081815260200182805461073c90610ce7565b80156107895780601f1061075e57610100808354040283529160200191610789565b820191906000526020600020905b81548152906001019060200180831161076c57829003601f168201915b505050505081565b600081600560003373ffffffffffffffffffffffffffffffffffffffff1673ffffffffffffffffffffffffffffffffffffffff1681526020019081526020016000205410156107df57600080fd5b6107ea338484610819565b6001905092915050565b6006602052816000526040600020602052806000526040600020600091509150505481565b600073ffffffffffffffffffffffffffffffffffffffff168273ffffffffffffffffffffffffffffffffffffffff16141561085357600080fd5b80600560008573ffffffffffffffffffffffffffffffffffffffff1673ffffffffffffffffffffffffffffffffffffffff16815260200190815260200160002060008282546108a29190610c38565b9250508190555080600560008473ffffffffffffffffffffffffffffffffffffffff1673ffffffffffffffffffffffffffffffffffffffff16815260200190815260200160002060008282546108f89190610be2565b925050819055508173ffffffffffffffffffffffffffffffffffffffff168373ffffffffffffffffffffffffffffffffffffffff167f9ed053bb818ff08b8353cd46f78db1f0799f31c9e4458fdb425c10eccd2efc4483600560008773ffffffffffffffffffffffffffffffffffffffff1673ffffffffffffffffffffffffffffffffffffffff1681526020019081526020016000205460405161099d929190610b9d565b60405180910390a3505050565b6000813590506109b981610d88565b92915050565b6000813590506109ce81610d9f565b92915050565b6000602082840312156109e657600080fd5b60006109f4848285016109aa565b91505092915050565b60008060408385031215610a1057600080fd5b6000610a1e858286016109aa565b9250506020610a2f858286016109aa565b9150509250929050565b600080600060608486031215610a4e57600080fd5b6000610a5c868287016109aa565b9350506020610a6d868287016109aa565b9250506040610a7e868287016109bf565b9150509250925092565b60008060408385031215610a9b57600080fd5b6000610aa9858286016109aa565b9250506020610aba858286016109bf565b9150509250929050565b610acd81610c6c565b82525050565b610adc81610c7e565b82525050565b6000610aed82610bc6565b610af78185610bd1565b9350610b07818560208601610cb4565b610b1081610d77565b840191505092915050565b610b2481610caa565b82525050565b6000602082019050610b3f6000830184610ac4565b92915050565b6000602082019050610b5a6000830184610ad3565b92915050565b60006020820190508181036000830152610b7a8184610ae2565b905092915050565b6000602082019050610b976000830184610b1b565b92915050565b6000604082019050610bb26000830185610b1b565b610bbf6020830184610b1b565b9392505050565b600081519050919050565b600082825260208201905092915050565b6000610bed82610caa565b9150610bf883610caa565b9250827fffffffffffffffffffffffffffffffffffffffffffffffffffffffffffffffff03821115610c2d57610c2c610d19565b5b828201905092915050565b6000610c4382610caa565b9150610c4e83610caa565b925082821015610c6157610c60610d19565b5b828203905092915050565b6000610c7782610c8a565b9050919050565b60008115159050919050565b600073ffffffffffffffffffffffffffffffffffffffff82169050919050565b6000819050919050565b60005b83811015610cd2578082015181840152602081019050610cb7565b83811115610ce1576000848401525b50505050565b60006002820490506001821680610cff57607f821691505b60208210811415610d1357610d12610d48565b5b50919050565b7f4e487b7100000000000000000000000000000000000000000000000000000000600052601160045260246000fd5b7f4e487b7100000000000000000000000000000000000000000000000000000000600052602260045260246000fd5b6000601f19601f8301169050919050565b610d9181610c6c565b8114610d9c57600080fd5b50565b610da881610caa565b8114610db357600080fd5b5056fea2646970667358221220d7dc135e1912ddd78f3b4265e94790713af67e5fd6907fb1587f8771da87c1f364736f6c63430008040033",
  "immutableReferences": {},
  "source": "// SPDX-License-Identifier: UNLICENSED\r\n\r\npragma solidity ^0.8.4;\r\n\r\ncontract Token {\r\n\r\n    // Variables\r\n    string public name = \"Mindpay Token\";\r\n    string public symbol = \"MINDPAY\";\r\n    uint256 public decimals = 18;\r\n    uint256 public totalSupply;\r\n    address public owner;\r\n\r\n    //Event\r\n    event Transfer(address indexed from, address indexed to, uint256 _value, uint256 balance);\r\n    event Approval(address indexed owner, address indexed spender, uint256 value);  \r\n\r\n    //Track Balance\r\n    mapping(address => uint256) public balanceOf;\r\n    mapping(address => mapping(address => uint256)) public allowance;\r\n\r\n    constructor() {\r\n        owner = msg.sender;\r\n        totalSupply = 1000000 * (10 ** decimals);\r\n        balanceOf[owner] = totalSupply;\r\n    }\r\n\r\n    function transferTokenToInvestor(address _to, uint256 _value) public returns (bool success) {\r\n       require(balanceOf[owner] >= _value);\r\n        _transfer(owner, _to, _value);\r\n        return true; \r\n    }\r\n\r\n    // Transfer\r\n    function transfer (address _to, uint256 _value) public returns (bool success){\r\n        require(balanceOf[msg.sender] >= _value);\r\n        _transfer(msg.sender, _to, _value);\r\n        return true;\r\n    }\r\n\r\n    function _transfer(address _from, address _to, uint256 _value) internal {\r\n        require(_to != address(0));\r\n        balanceOf[_from] -= _value;\r\n        balanceOf[_to] += _value;\r\n        emit Transfer(_from, _to, _value, balanceOf[_to]);\r\n    }\r\n\r\n    // Approve Tokens\r\n    function approve(address _spender, uint256 _value) public returns (bool success){\r\n        require(_spender != address(0));\r\n        allowance[msg.sender][_spender] = _value;\r\n        emit Approval(msg.sender, _spender, _value);\r\n        return true;\r\n    }\r\n\r\n    // Transfer From\r\n    function transferFrom(address _from, address _to, uint256 _value) public returns (bool success){\r\n        require(_value <= balanceOf[_from]);\r\n        require(_value <= allowance[_from][msg.sender]);\r\n        allowance[_from][msg.sender] = allowance[_from][msg.sender] - _value;\r\n        _transfer(_from, _to, _value);\r\n        return true;\r\n    }\r\n}",
  "sourcePath": "E:\\Work\\Minddef task\\Token-and-staking-management\\contracts\\Token.sol",
  "compiler": {
    "name": "solc",
    "version": "0.8.4+commit.c7e474f2.Emscripten.clang"
  },
  "schemaVersion": "3.2.3",
  "updatedAt": "2022-10-29T13:05:15.023Z",
  "devdoc": {
    "kind": "dev",
    "methods": {},
    "version": 1
  },
  "userdoc": {
    "kind": "user",
    "methods": {},
    "version": 1
  }
}